{
  "_format": "hh-sol-artifact-1",
  "contractName": "CrossChainPayout",
  "sourceName": "contracts/CrossChainPayout.sol",
  "abi": [
    {
      "inputs": [
        {
          "internalType": "address",
          "name": "admin",
          "type": "address"
        },
        {
          "internalType": "address",
          "name": "_zetaEndpoint",
          "type": "address"
        }
      ],
      "stateMutability": "nonpayable",
      "type": "constructor"
    },
    {
      "anonymous": false,
      "inputs": [
        {
          "indexed": true,
          "internalType": "uint256",
          "name": "requestId",
          "type": "uint256"
        },
        {
          "indexed": true,
          "internalType": "address",
          "name": "target",
          "type": "address"
        },
        {
          "indexed": false,
          "internalType": "uint256",
          "name": "amount",
          "type": "uint256"
        },
        {
          "indexed": false,
          "internalType": "uint256",
          "name": "destChainId",
          "type": "uint256"
        }
      ],
      "name": "PayoutSent",
      "type": "event"
    },
    {
      "anonymous": false,
      "inputs": [
        {
          "indexed": true,
          "internalType": "bytes32",
          "name": "role",
          "type": "bytes32"
        },
        {
          "indexed": true,
          "internalType": "bytes32",
          "name": "previousAdminRole",
          "type": "bytes32"
        },
        {
          "indexed": true,
          "internalType": "bytes32",
          "name": "newAdminRole",
          "type": "bytes32"
        }
      ],
      "name": "RoleAdminChanged",
      "type": "event"
    },
    {
      "anonymous": false,
      "inputs": [
        {
          "indexed": true,
          "internalType": "bytes32",
          "name": "role",
          "type": "bytes32"
        },
        {
          "indexed": true,
          "internalType": "address",
          "name": "account",
          "type": "address"
        },
        {
          "indexed": true,
          "internalType": "address",
          "name": "sender",
          "type": "address"
        }
      ],
      "name": "RoleGranted",
      "type": "event"
    },
    {
      "anonymous": false,
      "inputs": [
        {
          "indexed": true,
          "internalType": "bytes32",
          "name": "role",
          "type": "bytes32"
        },
        {
          "indexed": true,
          "internalType": "address",
          "name": "account",
          "type": "address"
        },
        {
          "indexed": true,
          "internalType": "address",
          "name": "sender",
          "type": "address"
        }
      ],
      "name": "RoleRevoked",
      "type": "event"
    },
    {
      "inputs": [],
      "name": "ADMIN_ROLE",
      "outputs": [
        {
          "internalType": "bytes32",
          "name": "",
          "type": "bytes32"
        }
      ],
      "stateMutability": "view",
      "type": "function"
    },
    {
      "inputs": [],
      "name": "DEFAULT_ADMIN_ROLE",
      "outputs": [
        {
          "internalType": "bytes32",
          "name": "",
          "type": "bytes32"
        }
      ],
      "stateMutability": "view",
      "type": "function"
    },
    {
      "inputs": [
        {
          "internalType": "bytes32",
          "name": "role",
          "type": "bytes32"
        }
      ],
      "name": "getRoleAdmin",
      "outputs": [
        {
          "internalType": "bytes32",
          "name": "",
          "type": "bytes32"
        }
      ],
      "stateMutability": "view",
      "type": "function"
    },
    {
      "inputs": [
        {
          "internalType": "bytes32",
          "name": "role",
          "type": "bytes32"
        },
        {
          "internalType": "address",
          "name": "account",
          "type": "address"
        }
      ],
      "name": "grantRole",
      "outputs": [],
      "stateMutability": "nonpayable",
      "type": "function"
    },
    {
      "inputs": [
        {
          "internalType": "bytes32",
          "name": "role",
          "type": "bytes32"
        },
        {
          "internalType": "address",
          "name": "account",
          "type": "address"
        }
      ],
      "name": "hasRole",
      "outputs": [
        {
          "internalType": "bool",
          "name": "",
          "type": "bool"
        }
      ],
      "stateMutability": "view",
      "type": "function"
    },
    {
      "inputs": [
        {
          "internalType": "bytes32",
          "name": "role",
          "type": "bytes32"
        },
        {
          "internalType": "address",
          "name": "account",
          "type": "address"
        }
      ],
      "name": "renounceRole",
      "outputs": [],
      "stateMutability": "nonpayable",
      "type": "function"
    },
    {
      "inputs": [
        {
          "internalType": "bytes32",
          "name": "role",
          "type": "bytes32"
        },
        {
          "internalType": "address",
          "name": "account",
          "type": "address"
        }
      ],
      "name": "revokeRole",
      "outputs": [],
      "stateMutability": "nonpayable",
      "type": "function"
    },
    {
      "inputs": [
        {
          "internalType": "bytes",
          "name": "payload",
          "type": "bytes"
        },
        {
          "internalType": "uint256",
          "name": "destChainId",
          "type": "uint256"
        }
      ],
      "name": "sendPayout",
      "outputs": [],
      "stateMutability": "payable",
      "type": "function"
    },
    {
      "inputs": [
        {
          "internalType": "address",
          "name": "ep",
          "type": "address"
        }
      ],
      "name": "setZetaEndpoint",
      "outputs": [],
      "stateMutability": "nonpayable",
      "type": "function"
    },
    {
      "inputs": [
        {
          "internalType": "bytes4",
          "name": "interfaceId",
          "type": "bytes4"
        }
      ],
      "name": "supportsInterface",
      "outputs": [
        {
          "internalType": "bool",
          "name": "",
          "type": "bool"
        }
      ],
      "stateMutability": "view",
      "type": "function"
    },
    {
      "inputs": [],
      "name": "zetaEndpoint",
      "outputs": [
        {
          "internalType": "address",
          "name": "",
          "type": "address"
        }
      ],
      "stateMutability": "view",
      "type": "function"
    }
  ],
  "bytecode": "0x60806040523480156200001157600080fd5b50604051620015f5380380620015f58339818101604052810190620000379190620002aa565b6200004c6000801b83620000c760201b60201c565b6200007e7fa49807205ce4d355092ef5a8a18f56e8913cf4a201fbe287825b095693c2177583620000c760201b60201c565b80600160006101000a81548173ffffffffffffffffffffffffffffffffffffffff021916908373ffffffffffffffffffffffffffffffffffffffff1602179055505050620002f1565b620000d98282620000dd60201b60201c565b5050565b620000ef8282620001ce60201b60201c565b620001ca57600160008084815260200190815260200160002060000160008373ffffffffffffffffffffffffffffffffffffffff1673ffffffffffffffffffffffffffffffffffffffff16815260200190815260200160002060006101000a81548160ff0219169083151502179055506200016f6200023860201b60201c565b73ffffffffffffffffffffffffffffffffffffffff168173ffffffffffffffffffffffffffffffffffffffff16837f2f8788117e7eff1d82e926ec794901d17c78024a50270940304540a733656f0d60405160405180910390a45b5050565b600080600084815260200190815260200160002060000160008373ffffffffffffffffffffffffffffffffffffffff1673ffffffffffffffffffffffffffffffffffffffff16815260200190815260200160002060009054906101000a900460ff16905092915050565b600033905090565b600080fd5b600073ffffffffffffffffffffffffffffffffffffffff82169050919050565b6000620002728262000245565b9050919050565b620002848162000265565b81146200029057600080fd5b50565b600081519050620002a48162000279565b92915050565b60008060408385031215620002c457620002c362000240565b5b6000620002d48582860162000293565b9250506020620002e78582860162000293565b9150509250929050565b6112f480620003016000396000f3fe60806040526004361061009c5760003560e01c806375b238fc1161006457806375b238fc14610198578063799816b8146101c357806391d14854146101ec578063a217fddf14610229578063c5e99aca14610254578063d547741f146102705761009c565b806301ffc9a7146100a1578063248a9ca3146100de5780632f2ff15d1461011b57806336568abe14610144578063471811071461016d575b600080fd5b3480156100ad57600080fd5b506100c860048036038101906100c39190610b2b565b610299565b6040516100d59190610b73565b60405180910390f35b3480156100ea57600080fd5b5061010560048036038101906101009190610bc4565b610313565b6040516101129190610c00565b60405180910390f35b34801561012757600080fd5b50610142600480360381019061013d9190610c79565b610332565b005b34801561015057600080fd5b5061016b60048036038101906101669190610c79565b610353565b005b34801561017957600080fd5b506101826103d6565b60405161018f9190610cc8565b60405180910390f35b3480156101a457600080fd5b506101ad6103fc565b6040516101ba9190610c00565b60405180910390f35b3480156101cf57600080fd5b506101ea60048036038101906101e59190610ce3565b610420565b005b3480156101f857600080fd5b50610213600480360381019061020e9190610c79565b61048f565b6040516102209190610b73565b60405180910390f35b34801561023557600080fd5b5061023e6104f9565b60405161024b9190610c00565b60405180910390f35b61026e60048036038101906102699190610dab565b610500565b005b34801561027c57600080fd5b5061029760048036038101906102929190610c79565b610573565b005b60007f7965db0b000000000000000000000000000000000000000000000000000000007bffffffffffffffffffffffffffffffffffffffffffffffffffffffff1916827bffffffffffffffffffffffffffffffffffffffffffffffffffffffff1916148061030c575061030b82610594565b5b9050919050565b6000806000838152602001908152602001600020600101549050919050565b61033b82610313565b610344816105fe565b61034e8383610612565b505050565b61035b6106f2565b73ffffffffffffffffffffffffffffffffffffffff168173ffffffffffffffffffffffffffffffffffffffff16146103c8576040517f08c379a00000000000000000000000000000000000000000000000000000000081526004016103bf90610e8e565b60405180910390fd5b6103d282826106fa565b5050565b600160009054906101000a900473ffffffffffffffffffffffffffffffffffffffff1681565b7fa49807205ce4d355092ef5a8a18f56e8913cf4a201fbe287825b095693c2177581565b7fa49807205ce4d355092ef5a8a18f56e8913cf4a201fbe287825b095693c2177561044a816105fe565b81600160006101000a81548173ffffffffffffffffffffffffffffffffffffffff021916908373ffffffffffffffffffffffffffffffffffffffff1602179055505050565b600080600084815260200190815260200160002060000160008373ffffffffffffffffffffffffffffffffffffffff1673ffffffffffffffffffffffffffffffffffffffff16815260200190815260200160002060009054906101000a900460ff16905092915050565b6000801b81565b600080600085858101906105149190610eec565b9250925092508273ffffffffffffffffffffffffffffffffffffffff16817fa66924c8a65f84761475175d1d8db947a42ff99992d9881649ceaec7045fe5818487604051610563929190610f4e565b60405180910390a3505050505050565b61057c82610313565b610585816105fe565b61058f83836106fa565b505050565b60007f01ffc9a7000000000000000000000000000000000000000000000000000000007bffffffffffffffffffffffffffffffffffffffffffffffffffffffff1916827bffffffffffffffffffffffffffffffffffffffffffffffffffffffff1916149050919050565b61060f8161060a6106f2565b6107db565b50565b61061c828261048f565b6106ee57600160008084815260200190815260200160002060000160008373ffffffffffffffffffffffffffffffffffffffff1673ffffffffffffffffffffffffffffffffffffffff16815260200190815260200160002060006101000a81548160ff0219169083151502179055506106936106f2565b73ffffffffffffffffffffffffffffffffffffffff168173ffffffffffffffffffffffffffffffffffffffff16837f2f8788117e7eff1d82e926ec794901d17c78024a50270940304540a733656f0d60405160405180910390a45b5050565b600033905090565b610704828261048f565b156107d757600080600084815260200190815260200160002060000160008373ffffffffffffffffffffffffffffffffffffffff1673ffffffffffffffffffffffffffffffffffffffff16815260200190815260200160002060006101000a81548160ff02191690831515021790555061077c6106f2565b73ffffffffffffffffffffffffffffffffffffffff168173ffffffffffffffffffffffffffffffffffffffff16837ff6391f5c32d9c69d2a47ea670b442974b53935d1edc7fd64eb21e047a839171b60405160405180910390a45b5050565b6107e5828261048f565b61085c576107f281610860565b6108008360001c602061088d565b604051602001610811929190611080565b6040516020818303038152906040526040517f08c379a00000000000000000000000000000000000000000000000000000000081526004016108539190611104565b60405180910390fd5b5050565b60606108868273ffffffffffffffffffffffffffffffffffffffff16601460ff1661088d565b9050919050565b6060600060028360026108a09190611155565b6108aa9190611197565b67ffffffffffffffff8111156108c3576108c26111cb565b5b6040519080825280601f01601f1916602001820160405280156108f55781602001600182028036833780820191505090505b5090507f30000000000000000000000000000000000000000000000000000000000000008160008151811061092d5761092c6111fa565b5b60200101907effffffffffffffffffffffffffffffffffffffffffffffffffffffffffffff1916908160001a9053507f780000000000000000000000000000000000000000000000000000000000000081600181518110610991576109906111fa565b5b60200101907effffffffffffffffffffffffffffffffffffffffffffffffffffffffffffff1916908160001a905350600060018460026109d19190611155565b6109db9190611197565b90505b6001811115610a7b577f3031323334353637383961626364656600000000000000000000000000000000600f861660108110610a1d57610a1c6111fa565b5b1a60f81b828281518110610a3457610a336111fa565b5b60200101907effffffffffffffffffffffffffffffffffffffffffffffffffffffffffffff1916908160001a905350600485901c945080610a7490611229565b90506109de565b5060008414610abf576040517f08c379a0000000000000000000000000000000000000000000000000000000008152600401610ab69061129e565b60405180910390fd5b8091505092915050565b600080fd5b600080fd5b60007fffffffff0000000000000000000000000000000000000000000000000000000082169050919050565b610b0881610ad3565b8114610b1357600080fd5b50565b600081359050610b2581610aff565b92915050565b600060208284031215610b4157610b40610ac9565b5b6000610b4f84828501610b16565b91505092915050565b60008115159050919050565b610b6d81610b58565b82525050565b6000602082019050610b886000830184610b64565b92915050565b6000819050919050565b610ba181610b8e565b8114610bac57600080fd5b50565b600081359050610bbe81610b98565b92915050565b600060208284031215610bda57610bd9610ac9565b5b6000610be884828501610baf565b91505092915050565b610bfa81610b8e565b82525050565b6000602082019050610c156000830184610bf1565b92915050565b600073ffffffffffffffffffffffffffffffffffffffff82169050919050565b6000610c4682610c1b565b9050919050565b610c5681610c3b565b8114610c6157600080fd5b50565b600081359050610c7381610c4d565b92915050565b60008060408385031215610c9057610c8f610ac9565b5b6000610c9e85828601610baf565b9250506020610caf85828601610c64565b9150509250929050565b610cc281610c3b565b82525050565b6000602082019050610cdd6000830184610cb9565b92915050565b600060208284031215610cf957610cf8610ac9565b5b6000610d0784828501610c64565b91505092915050565b600080fd5b600080fd5b600080fd5b60008083601f840112610d3557610d34610d10565b5b8235905067ffffffffffffffff811115610d5257610d51610d15565b5b602083019150836001820283011115610d6e57610d6d610d1a565b5b9250929050565b6000819050919050565b610d8881610d75565b8114610d9357600080fd5b50565b600081359050610da581610d7f565b92915050565b600080600060408486031215610dc457610dc3610ac9565b5b600084013567ffffffffffffffff811115610de257610de1610ace565b5b610dee86828701610d1f565b93509350506020610e0186828701610d96565b9150509250925092565b600082825260208201905092915050565b7f416363657373436f6e74726f6c3a2063616e206f6e6c792072656e6f756e636560008201527f20726f6c657320666f722073656c660000000000000000000000000000000000602082015250565b6000610e78602f83610e0b565b9150610e8382610e1c565b604082019050919050565b60006020820190508181036000830152610ea781610e6b565b9050919050565b6000610eb982610c1b565b9050919050565b610ec981610eae565b8114610ed457600080fd5b50565b600081359050610ee681610ec0565b92915050565b600080600060608486031215610f0557610f04610ac9565b5b6000610f1386828701610ed7565b9350506020610f2486828701610d96565b9250506040610f3586828701610d96565b9150509250925092565b610f4881610d75565b82525050565b6000604082019050610f636000830185610f3f565b610f706020830184610f3f565b9392505050565b600081905092915050565b7f416363657373436f6e74726f6c3a206163636f756e7420000000000000000000600082015250565b6000610fb8601783610f77565b9150610fc382610f82565b601782019050919050565b600081519050919050565b60005b83811015610ff7578082015181840152602081019050610fdc565b60008484015250505050565b600061100e82610fce565b6110188185610f77565b9350611028818560208601610fd9565b80840191505092915050565b7f206973206d697373696e6720726f6c6520000000000000000000000000000000600082015250565b600061106a601183610f77565b915061107582611034565b601182019050919050565b600061108b82610fab565b91506110978285611003565b91506110a28261105d565b91506110ae8284611003565b91508190509392505050565b6000601f19601f8301169050919050565b60006110d682610fce565b6110e08185610e0b565b93506110f0818560208601610fd9565b6110f9816110ba565b840191505092915050565b6000602082019050818103600083015261111e81846110cb565b905092915050565b7f4e487b7100000000000000000000000000000000000000000000000000000000600052601160045260246000fd5b600061116082610d75565b915061116b83610d75565b925082820261117981610d75565b915082820484148315176111905761118f611126565b5b5092915050565b60006111a282610d75565b91506111ad83610d75565b92508282019050808211156111c5576111c4611126565b5b92915050565b7f4e487b7100000000000000000000000000000000000000000000000000000000600052604160045260246000fd5b7f4e487b7100000000000000000000000000000000000000000000000000000000600052603260045260246000fd5b600061123482610d75565b91506000820361124757611246611126565b5b600182039050919050565b7f537472696e67733a20686578206c656e67746820696e73756666696369656e74600082015250565b6000611288602083610e0b565b915061129382611252565b602082019050919050565b600060208201905081810360008301526112b78161127b565b905091905056fea26469706673582212201eeceedcfd20708d21e79927d1a7c27cbbf113fa74875f43997dcb98ab5cd71e64736f6c63430008130033",
  "linkReferences": {},
  "deployedLinkReferences": {}
}