{"contracts/PayrollVault.sol":{"PayrollVault":{"abi":[{"inputs":[{"internalType":"address","name":"admin","type":"address"},{"internalType":"address","name":"_crossChainPayout","type":"address"}],"stateMutability":"nonpayable","type":"constructor"},{"anonymous":false,"inputs":[{"indexed":true,"internalType":"address","name":"contributor","type":"address"},{"indexed":false,"internalType":"uint256","name":"id","type":"uint256"},{"indexed":false,"internalType":"uint256","name":"preferredChainId","type":"uint256"},{"indexed":false,"internalType":"address","name":"wallet","type":"address"}],"name":"ContributorRegistered","type":"event"},{"anonymous":false,"inputs":[{"indexed":true,"internalType":"uint256","name":"requestId","type":"uint256"},{"indexed":true,"internalType":"address","name":"requester","type":"address"},{"indexed":false,"internalType":"uint256","name":"amount","type":"uint256"},{"indexed":false,"internalType":"uint256","name":"targetChainId","type":"uint256"},{"indexed":false,"internalType":"address","name":"targetWallet","type":"address"}],"name":"PaymentRequested","type":"event"},{"anonymous":false,"inputs":[{"indexed":true,"internalType":"bytes32","name":"role","type":"bytes32"},{"indexed":true,"internalType":"bytes32","name":"previousAdminRole","type":"bytes32"},{"indexed":true,"internalType":"bytes32","name":"newAdminRole","type":"bytes32"}],"name":"RoleAdminChanged","type":"event"},{"anonymous":false,"inputs":[{"indexed":true,"internalType":"bytes32","name":"role","type":"bytes32"},{"indexed":true,"internalType":"address","name":"account","type":"address"},{"indexed":true,"internalType":"address","name":"sender","type":"address"}],"name":"RoleGranted","type":"event"},{"anonymous":false,"inputs":[{"indexed":true,"internalType":"bytes32","name":"role","type":"bytes32"},{"indexed":true,"internalType":"address","name":"account","type":"address"},{"indexed":true,"internalType":"address","name":"sender","type":"address"}],"name":"RoleRevoked","type":"event"},{"inputs":[],"name":"ADMIN_ROLE","outputs":[{"internalType":"bytes32","name":"","type":"bytes32"}],"stateMutability":"view","type":"function"},{"inputs":[],"name":"CONTRIBUTOR_ROLE","outputs":[{"internalType":"bytes32","name":"","type":"bytes32"}],"stateMutability":"view","type":"function"},{"inputs":[],"name":"DEFAULT_ADMIN_ROLE","outputs":[{"internalType":"bytes32","name":"","type":"bytes32"}],"stateMutability":"view","type":"function"},{"inputs":[{"internalType":"address","name":"","type":"address"}],"name":"contributors","outputs":[{"internalType":"uint256","name":"id","type":"uint256"},{"internalType":"address","name":"wallet","type":"address"},{"internalType":"uint256","name":"preferredChainId","type":"uint256"},{"internalType":"bool","name":"exists","type":"bool"}],"stateMutability":"view","type":"function"},{"inputs":[],"name":"crossChainPayout","outputs":[{"internalType":"contract ICrossChainPayout","name":"","type":"address"}],"stateMutability":"view","type":"function"},{"inputs":[{"internalType":"uint256","name":"requestId","type":"uint256"}],"name":"forwardRequestToPayout","outputs":[],"stateMutability":"payable","type":"function"},{"inputs":[{"internalType":"uint256","name":"id","type":"uint256"}],"name":"getRequest","outputs":[{"components":[{"internalType":"uint256","name":"id","type":"uint256"},{"internalType":"address","name":"requester","type":"address"},{"internalType":"uint256","name":"amount","type":"uint256"},{"internalType":"uint256","name":"targetChainId","type":"uint256"},{"internalType":"address","name":"targetWallet","type":"address"},{"internalType":"bool","name":"approved","type":"bool"},{"internalType":"bool","name":"executed","type":"bool"},{"internalType":"uint256","name":"timestamp","type":"uint256"}],"internalType":"struct PayrollVault.PaymentRequest","name":"","type":"tuple"}],"stateMutability":"view","type":"function"},{"inputs":[{"internalType":"bytes32","name":"role","type":"bytes32"}],"name":"getRoleAdmin","outputs":[{"internalType":"bytes32","name":"","type":"bytes32"}],"stateMutability":"view","type":"function"},{"inputs":[{"internalType":"bytes32","name":"role","type":"bytes32"},{"internalType":"address","name":"account","type":"address"}],"name":"grantRole","outputs":[],"stateMutability":"nonpayable","type":"function"},{"inputs":[{"internalType":"bytes32","name":"role","type":"bytes32"},{"internalType":"address","name":"account","type":"address"}],"name":"hasRole","outputs":[{"internalType":"bool","name":"","type":"bool"}],"stateMutability":"view","type":"function"},{"inputs":[],"name":"nextContributorId","outputs":[{"internalType":"uint256","name":"","type":"uint256"}],"stateMutability":"view","type":"function"},{"inputs":[],"name":"nextRequestId","outputs":[{"internalType":"uint256","name":"","type":"uint256"}],"stateMutability":"view","type":"function"},{"inputs":[{"internalType":"address","name":"wallet","type":"address"},{"internalType":"uint256","name":"preferredChainId","type":"uint256"}],"name":"registerContributor","outputs":[],"stateMutability":"nonpayable","type":"function"},{"inputs":[{"internalType":"bytes32","name":"role","type":"bytes32"},{"internalType":"address","name":"account","type":"address"}],"name":"renounceRole","outputs":[],"stateMutability":"nonpayable","type":"function"},{"inputs":[{"internalType":"uint256","name":"amount","type":"uint256"},{"internalType":"uint256","name":"targetChainId","type":"uint256"},{"internalType":"address","name":"targetWallet","type":"address"}],"name":"requestPayment","outputs":[{"internalType":"uint256","name":"","type":"uint256"}],"stateMutability":"nonpayable","type":"function"},{"inputs":[{"internalType":"uint256","name":"","type":"uint256"}],"name":"requests","outputs":[{"internalType":"uint256","name":"id","type":"uint256"},{"internalType":"address","name":"requester","type":"address"},{"internalType":"uint256","name":"amount","type":"uint256"},{"internalType":"uint256","name":"targetChainId","type":"uint256"},{"internalType":"address","name":"targetWallet","type":"address"},{"internalType":"bool","name":"approved","type":"bool"},{"internalType":"bool","name":"executed","type":"bool"},{"internalType":"uint256","name":"timestamp","type":"uint256"}],"stateMutability":"view","type":"function"},{"inputs":[{"internalType":"bytes32","name":"role","type":"bytes32"},{"internalType":"address","name":"account","type":"address"}],"name":"revokeRole","outputs":[],"stateMutability":"nonpayable","type":"function"},{"inputs":[{"internalType":"address","name":"_crossChainPayout","type":"address"}],"name":"setCrossChainPayout","outputs":[],"stateMutability":"nonpayable","type":"function"},{"inputs":[{"internalType":"address","name":"token","type":"address"}],"name":"setTreasuryToken","outputs":[],"stateMutability":"nonpayable","type":"function"},{"inputs":[{"internalType":"bytes4","name":"interfaceId","type":"bytes4"}],"name":"supportsInterface","outputs":[{"internalType":"bool","name":"","type":"bool"}],"stateMutability":"view","type":"function"},{"inputs":[],"name":"treasuryToken","outputs":[{"internalType":"address","name":"","type":"address"}],"stateMutability":"view","type":"function"},{"stateMutability":"payable","type":"receive"}],"evm":{"bytecode":{"linkReferences":{},"object":"60806040523480156200001157600080fd5b506040516200273c3803806200273c8339818101604052810190620000379190620002aa565b6200004c6000801b83620000c760201b60201c565b6200007e7fa49807205ce4d355092ef5a8a18f56e8913cf4a201fbe287825b095693c2177583620000c760201b60201c565b80600560006101000a81548173ffffffffffffffffffffffffffffffffffffffff021916908373ffffffffffffffffffffffffffffffffffffffff1602179055505050620002f1565b620000d98282620000dd60201b60201c565b5050565b620000ef8282620001ce60201b60201c565b620001ca57600160008084815260200190815260200160002060000160008373ffffffffffffffffffffffffffffffffffffffff1673ffffffffffffffffffffffffffffffffffffffff16815260200190815260200160002060006101000a81548160ff0219169083151502179055506200016f6200023860201b60201c565b73ffffffffffffffffffffffffffffffffffffffff168173ffffffffffffffffffffffffffffffffffffffff16837f2f8788117e7eff1d82e926ec794901d17c78024a50270940304540a733656f0d60405160405180910390a45b5050565b600080600084815260200190815260200160002060000160008373ffffffffffffffffffffffffffffffffffffffff1673ffffffffffffffffffffffffffffffffffffffff16815260200190815260200160002060009054906101000a900460ff16905092915050565b600033905090565b600080fd5b600073ffffffffffffffffffffffffffffffffffffffff82169050919050565b6000620002728262000245565b9050919050565b620002848162000265565b81146200029057600080fd5b50565b600081519050620002a48162000279565b92915050565b60008060408385031215620002c457620002c362000240565b5b6000620002d48582860162000293565b9250506020620002e78582860162000293565b9150509250929050565b61243b80620003016000396000f3fe60806040526004361061012e5760003560e01c806384ac761d116100ab578063c58343ef1161006f578063c58343ef1461042d578063d547741f1461046a578063e19cb55b14610493578063eafb79e2146104bc578063ee77418d146104e7578063f0daf8c91461051257610135565b806384ac761d1461033257806391d148541461035d578063a217fddf1461039a578063b2ce514b146103c5578063beb417e9146103f057610135565b8063472f0bcc116100f2578063472f0bcc146102465780636a84a9851461026f57806375b238fc1461029a5780637f4175f8146102c557806381d12c58146102ee57610135565b806301ffc9a71461013a5780631f6d494214610177578063248a9ca3146101b75780632f2ff15d146101f457806336568abe1461021d57610135565b3661013557005b600080fd5b34801561014657600080fd5b50610161600480360381019061015c9190611803565b61052e565b60405161016e919061184b565b60405180910390f35b34801561018357600080fd5b5061019e600480360381019061019991906118c4565b6105a8565b6040516101ae9493929190611919565b60405180910390f35b3480156101c357600080fd5b506101de60048036038101906101d99190611994565b610605565b6040516101eb91906119d0565b60405180910390f35b34801561020057600080fd5b5061021b600480360381019061021691906119eb565b610624565b005b34801561022957600080fd5b50610244600480360381019061023f91906119eb565b610645565b005b34801561025257600080fd5b5061026d60048036038101906102689190611a57565b6106c8565b005b34801561027b57600080fd5b5061028461094e565b6040516102919190611a97565b60405180910390f35b3480156102a657600080fd5b506102af610954565b6040516102bc91906119d0565b60405180910390f35b3480156102d157600080fd5b506102ec60048036038101906102e791906118c4565b610978565b005b3480156102fa57600080fd5b5061031560048036038101906103109190611ab2565b610a25565b604051610329989796959493929190611adf565b60405180910390f35b34801561033e57600080fd5b50610347610ac7565b6040516103549190611a97565b60405180910390f35b34801561036957600080fd5b50610384600480360381019061037f91906119eb565b610acd565b604051610391919061184b565b60405180910390f35b3480156103a657600080fd5b506103af610b37565b6040516103bc91906119d0565b60405180910390f35b3480156103d157600080fd5b506103da610b3e565b6040516103e79190611b5d565b60405180910390f35b3480156103fc57600080fd5b5061041760048036038101906104129190611b78565b610b64565b6040516104249190611a97565b60405180910390f35b34801561043957600080fd5b50610454600480360381019061044f9190611ab2565b610d80565b6040516104619190611c9a565b60405180910390f35b34801561047657600080fd5b50610491600480360381019061048c91906119eb565b610eb8565b005b34801561049f57600080fd5b506104ba60048036038101906104b591906118c4565b610ed9565b005b3480156104c857600080fd5b506104d1610f86565b6040516104de91906119d0565b60405180910390f35b3480156104f357600080fd5b506104fc610faa565b6040516105099190611d15565b60405180910390f35b61052c60048036038101906105279190611ab2565b610fd0565b005b60007f7965db0b000000000000000000000000000000000000000000000000000000007bffffffffffffffffffffffffffffffffffffffffffffffffffffffff1916827bffffffffffffffffffffffffffffffffffffffffffffffffffffffff191614806105a157506105a0826111ee565b5b9050919050565b60016020528060005260406000206000915090508060000154908060010160009054906101000a900473ffffffffffffffffffffffffffffffffffffffff16908060020154908060030160009054906101000a900460ff16905084565b6000806000838152602001908152602001600020600101549050919050565b61062d82610605565b61063681611258565b610640838361126c565b505050565b61064d61134c565b73ffffffffffffffffffffffffffffffffffffffff168173ffffffffffffffffffffffffffffffffffffffff16146106ba576040517f08c379a00000000000000000000000000000000000000000000000000000000081526004016106b190611db3565b60405180910390fd5b6106c48282611354565b5050565b6106f27fa49807205ce4d355092ef5a8a18f56e8913cf4a201fbe287825b095693c2177533610acd565b610731576040517f08c379a000000000000000000000000000000000000000000000000000000000815260040161072890611e1f565b60405180910390fd5b600160008373ffffffffffffffffffffffffffffffffffffffff1673ffffffffffffffffffffffffffffffffffffffff16815260200190815260200160002060030160009054906101000a900460ff16156107c1576040517f08c379a00000000000000000000000000000000000000000000000000000000081526004016107b890611e8b565b60405180910390fd5b60405180608001604052806002600081546107db90611eda565b91905081905581526020018373ffffffffffffffffffffffffffffffffffffffff16815260200182815260200160011515815250600160008473ffffffffffffffffffffffffffffffffffffffff1673ffffffffffffffffffffffffffffffffffffffff1681526020019081526020016000206000820151816000015560208201518160010160006101000a81548173ffffffffffffffffffffffffffffffffffffffff021916908373ffffffffffffffffffffffffffffffffffffffff1602179055506040820151816002015560608201518160030160006101000a81548160ff0219169083151502179055509050506108f67fe2889e7308860b3fe8df0daa86fccfea4d71e43776719a57be28cf90b6db81e983611435565b8173ffffffffffffffffffffffffffffffffffffffff167fab3480fb7047a80d322be65b7e5c25906db00f8e03191940d77d702880ef7d6b600254838560405161094293929190611f22565b60405180910390a25050565b60045481565b7fa49807205ce4d355092ef5a8a18f56e8913cf4a201fbe287825b095693c2177581565b6109a27fa49807205ce4d355092ef5a8a18f56e8913cf4a201fbe287825b095693c2177533610acd565b6109e1576040517f08c379a00000000000000000000000000000000000000000000000000000000081526004016109d890611e1f565b60405180910390fd5b80600560006101000a81548173ffffffffffffffffffffffffffffffffffffffff021916908373ffffffffffffffffffffffffffffffffffffffff16021790555050565b60036020528060005260406000206000915090508060000154908060010160009054906101000a900473ffffffffffffffffffffffffffffffffffffffff16908060020154908060030154908060040160009054906101000a900473ffffffffffffffffffffffffffffffffffffffff16908060040160149054906101000a900460ff16908060040160159054906101000a900460ff16908060050154905088565b60025481565b600080600084815260200190815260200160002060000160008373ffffffffffffffffffffffffffffffffffffffff1673ffffffffffffffffffffffffffffffffffffffff16815260200190815260200160002060009054906101000a900460ff16905092915050565b6000801b81565b600660009054906101000a900473ffffffffffffffffffffffffffffffffffffffff1681565b60007fe2889e7308860b3fe8df0daa86fccfea4d71e43776719a57be28cf90b6db81e9610b9081611258565b6000600460008154610ba190611eda565b91905081905590506040518061010001604052808281526020013373ffffffffffffffffffffffffffffffffffffffff1681526020018781526020018681526020018573ffffffffffffffffffffffffffffffffffffffff16815260200160001515815260200160001515815260200142815250600360008381526020019081526020016000206000820151816000015560208201518160010160006101000a81548173ffffffffffffffffffffffffffffffffffffffff021916908373ffffffffffffffffffffffffffffffffffffffff160217905550604082015181600201556060820151816003015560808201518160040160006101000a81548173ffffffffffffffffffffffffffffffffffffffff021916908373ffffffffffffffffffffffffffffffffffffffff16021790555060a08201518160040160146101000a81548160ff02191690831515021790555060c08201518160040160156101000a81548160ff02191690831515021790555060e082015181600501559050503373ffffffffffffffffffffffffffffffffffffffff16817f48027d678fbfa59cb7069084469077139c94549d2c0dbe8eb8df8603e705d85d888888604051610d6c93929190611f22565b60405180910390a380925050509392505050565b610d88611731565b6003600083815260200190815260200160002060405180610100016040529081600082015481526020016001820160009054906101000a900473ffffffffffffffffffffffffffffffffffffffff1673ffffffffffffffffffffffffffffffffffffffff1673ffffffffffffffffffffffffffffffffffffffff16815260200160028201548152602001600382015481526020016004820160009054906101000a900473ffffffffffffffffffffffffffffffffffffffff1673ffffffffffffffffffffffffffffffffffffffff1673ffffffffffffffffffffffffffffffffffffffff1681526020016004820160149054906101000a900460ff161515151581526020016004820160159054906101000a900460ff161515151581526020016005820154815250509050919050565b610ec182610605565b610eca81611258565b610ed48383611354565b505050565b610f037fa49807205ce4d355092ef5a8a18f56e8913cf4a201fbe287825b095693c2177533610acd565b610f42576040517f08c379a0000000000000000000000000000000000000000000000000000000008152600401610f3990611e1f565b60405180910390fd5b80600660006101000a81548173ffffffffffffffffffffffffffffffffffffffff021916908373ffffffffffffffffffffffffffffffffffffffff16021790555050565b7fe2889e7308860b3fe8df0daa86fccfea4d71e43776719a57be28cf90b6db81e981565b600560009054906101000a900473ffffffffffffffffffffffffffffffffffffffff1681565b610ffa7fa49807205ce4d355092ef5a8a18f56e8913cf4a201fbe287825b095693c2177533610acd565b611039576040517f08c379a000000000000000000000000000000000000000000000000000000000815260040161103090611e1f565b60405180910390fd5b600060036000838152602001908152602001600020905081816000015414611096576040517f08c379a000000000000000000000000000000000000000000000000000000000815260040161108d90611fa5565b60405180910390fd5b8060040160159054906101000a900460ff16156110e8576040517f08c379a00000000000000000000000000000000000000000000000000000000081526004016110df90612011565b60405180910390fd5b60008160040160009054906101000a900473ffffffffffffffffffffffffffffffffffffffff1682600201548460405160200161112793929190612031565b6040516020818303038152906040529050600560009054906101000a900473ffffffffffffffffffffffffffffffffffffffff1673ffffffffffffffffffffffffffffffffffffffff1663c5e99aca348385600301546040518463ffffffff1660e01b815260040161119a9291906120f8565b6000604051808303818588803b1580156111b357600080fd5b505af11580156111c7573d6000803e3d6000fd5b505050505060018260040160156101000a81548160ff021916908315150217905550505050565b60007f01ffc9a7000000000000000000000000000000000000000000000000000000007bffffffffffffffffffffffffffffffffffffffffffffffffffffffff1916827bffffffffffffffffffffffffffffffffffffffffffffffffffffffff1916149050919050565b6112698161126461134c565b611443565b50565b6112768282610acd565b61134857600160008084815260200190815260200160002060000160008373ffffffffffffffffffffffffffffffffffffffff1673ffffffffffffffffffffffffffffffffffffffff16815260200190815260200160002060006101000a81548160ff0219169083151502179055506112ed61134c565b73ffffffffffffffffffffffffffffffffffffffff168173ffffffffffffffffffffffffffffffffffffffff16837f2f8788117e7eff1d82e926ec794901d17c78024a50270940304540a733656f0d60405160405180910390a45b5050565b600033905090565b61135e8282610acd565b1561143157600080600084815260200190815260200160002060000160008373ffffffffffffffffffffffffffffffffffffffff1673ffffffffffffffffffffffffffffffffffffffff16815260200190815260200160002060006101000a81548160ff0219169083151502179055506113d661134c565b73ffffffffffffffffffffffffffffffffffffffff168173ffffffffffffffffffffffffffffffffffffffff16837ff6391f5c32d9c69d2a47ea670b442974b53935d1edc7fd64eb21e047a839171b60405160405180910390a45b5050565b61143f828261126c565b5050565b61144d8282610acd565b6114c45761145a816114c8565b6114688360001c60206114f5565b604051602001611479929190612207565b6040516020818303038152906040526040517f08c379a00000000000000000000000000000000000000000000000000000000081526004016114bb919061227a565b60405180910390fd5b5050565b60606114ee8273ffffffffffffffffffffffffffffffffffffffff16601460ff166114f5565b9050919050565b606060006002836002611508919061229c565b61151291906122de565b67ffffffffffffffff81111561152b5761152a612312565b5b6040519080825280601f01601f19166020018201604052801561155d5781602001600182028036833780820191505090505b5090507f30000000000000000000000000000000000000000000000000000000000000008160008151811061159557611594612341565b5b60200101907effffffffffffffffffffffffffffffffffffffffffffffffffffffffffffff1916908160001a9053507f7800000000000000000000000000000000000000000000000000000000000000816001815181106115f9576115f8612341565b5b60200101907effffffffffffffffffffffffffffffffffffffffffffffffffffffffffffff1916908160001a90535060006001846002611639919061229c565b61164391906122de565b90505b60018111156116e3577f3031323334353637383961626364656600000000000000000000000000000000600f86166010811061168557611684612341565b5b1a60f81b82828151811061169c5761169b612341565b5b60200101907effffffffffffffffffffffffffffffffffffffffffffffffffffffffffffff1916908160001a905350600485901c9450806116dc90612370565b9050611646565b5060008414611727576040517f08c379a000000000000000000000000000000000000000000000000000000000815260040161171e906123e5565b60405180910390fd5b8091505092915050565b60405180610100016040528060008152602001600073ffffffffffffffffffffffffffffffffffffffff1681526020016000815260200160008152602001600073ffffffffffffffffffffffffffffffffffffffff168152602001600015158152602001600015158152602001600081525090565b600080fd5b60007fffffffff0000000000000000000000000000000000000000000000000000000082169050919050565b6117e0816117ab565b81146117eb57600080fd5b50565b6000813590506117fd816117d7565b92915050565b600060208284031215611819576118186117a6565b5b6000611827848285016117ee565b91505092915050565b60008115159050919050565b61184581611830565b82525050565b6000602082019050611860600083018461183c565b92915050565b600073ffffffffffffffffffffffffffffffffffffffff82169050919050565b600061189182611866565b9050919050565b6118a181611886565b81146118ac57600080fd5b50565b6000813590506118be81611898565b92915050565b6000602082840312156118da576118d96117a6565b5b60006118e8848285016118af565b91505092915050565b6000819050919050565b611904816118f1565b82525050565b61191381611886565b82525050565b600060808201905061192e60008301876118fb565b61193b602083018661190a565b61194860408301856118fb565b611955606083018461183c565b95945050505050565b6000819050919050565b6119718161195e565b811461197c57600080fd5b50565b60008135905061198e81611968565b92915050565b6000602082840312156119aa576119a96117a6565b5b60006119b88482850161197f565b91505092915050565b6119ca8161195e565b82525050565b60006020820190506119e560008301846119c1565b92915050565b60008060408385031215611a0257611a016117a6565b5b6000611a108582860161197f565b9250506020611a21858286016118af565b9150509250929050565b611a34816118f1565b8114611a3f57600080fd5b50565b600081359050611a5181611a2b565b92915050565b60008060408385031215611a6e57611a6d6117a6565b5b6000611a7c858286016118af565b9250506020611a8d85828601611a42565b9150509250929050565b6000602082019050611aac60008301846118fb565b92915050565b600060208284031215611ac857611ac76117a6565b5b6000611ad684828501611a42565b91505092915050565b600061010082019050611af5600083018b6118fb565b611b02602083018a61190a565b611b0f60408301896118fb565b611b1c60608301886118fb565b611b29608083018761190a565b611b3660a083018661183c565b611b4360c083018561183c565b611b5060e08301846118fb565b9998505050505050505050565b6000602082019050611b72600083018461190a565b92915050565b600080600060608486031215611b9157611b906117a6565b5b6000611b9f86828701611a42565b9350506020611bb086828701611a42565b9250506040611bc1868287016118af565b9150509250925092565b611bd4816118f1565b82525050565b611be381611886565b82525050565b611bf281611830565b82525050565b61010082016000820151611c0f6000850182611bcb565b506020820151611c226020850182611bda565b506040820151611c356040850182611bcb565b506060820151611c486060850182611bcb565b506080820151611c5b6080850182611bda565b5060a0820151611c6e60a0850182611be9565b5060c0820151611c8160c0850182611be9565b5060e0820151611c9460e0850182611bcb565b50505050565b600061010082019050611cb06000830184611bf8565b92915050565b6000819050919050565b6000611cdb611cd6611cd184611866565b611cb6565b611866565b9050919050565b6000611ced82611cc0565b9050919050565b6000611cff82611ce2565b9050919050565b611d0f81611cf4565b82525050565b6000602082019050611d2a6000830184611d06565b92915050565b600082825260208201905092915050565b7f416363657373436f6e74726f6c3a2063616e206f6e6c792072656e6f756e636560008201527f20726f6c657320666f722073656c660000000000000000000000000000000000602082015250565b6000611d9d602f83611d30565b9150611da882611d41565b604082019050919050565b60006020820190508181036000830152611dcc81611d90565b9050919050565b7f4e6f742061646d696e0000000000000000000000000000000000000000000000600082015250565b6000611e09600983611d30565b9150611e1482611dd3565b602082019050919050565b60006020820190508181036000830152611e3881611dfc565b9050919050565b7f416c726561647920726567697374657265640000000000000000000000000000600082015250565b6000611e75601283611d30565b9150611e8082611e3f565b602082019050919050565b60006020820190508181036000830152611ea481611e68565b9050919050565b7f4e487b7100000000000000000000000000000000000000000000000000000000600052601160045260246000fd5b6000611ee5826118f1565b91507fffffffffffffffffffffffffffffffffffffffffffffffffffffffffffffffff8203611f1757611f16611eab565b5b600182019050919050565b6000606082019050611f3760008301866118fb565b611f4460208301856118fb565b611f51604083018461190a565b949350505050565b7f496e76616c696420726571756573740000000000000000000000000000000000600082015250565b6000611f8f600f83611d30565b9150611f9a82611f59565b602082019050919050565b60006020820190508181036000830152611fbe81611f82565b9050919050565b7f416c726561647920657865637574656400000000000000000000000000000000600082015250565b6000611ffb601083611d30565b915061200682611fc5565b602082019050919050565b6000602082019050818103600083015261202a81611fee565b9050919050565b6000606082019050612046600083018661190a565b61205360208301856118fb565b61206060408301846118fb565b949350505050565b600081519050919050565b600082825260208201905092915050565b60005b838110156120a2578082015181840152602081019050612087565b60008484015250505050565b6000601f19601f8301169050919050565b60006120ca82612068565b6120d48185612073565b93506120e4818560208601612084565b6120ed816120ae565b840191505092915050565b6000604082019050818103600083015261211281856120bf565b905061212160208301846118fb565b9392505050565b600081905092915050565b7f416363657373436f6e74726f6c3a206163636f756e7420000000000000000000600082015250565b6000612169601783612128565b915061217482612133565b601782019050919050565b600081519050919050565b60006121958261217f565b61219f8185612128565b93506121af818560208601612084565b80840191505092915050565b7f206973206d697373696e6720726f6c6520000000000000000000000000000000600082015250565b60006121f1601183612128565b91506121fc826121bb565b601182019050919050565b60006122128261215c565b915061221e828561218a565b9150612229826121e4565b9150612235828461218a565b91508190509392505050565b600061224c8261217f565b6122568185611d30565b9350612266818560208601612084565b61226f816120ae565b840191505092915050565b600060208201905081810360008301526122948184612241565b905092915050565b60006122a7826118f1565b91506122b2836118f1565b92508282026122c0816118f1565b915082820484148315176122d7576122d6611eab565b5b5092915050565b60006122e9826118f1565b91506122f4836118f1565b925082820190508082111561230c5761230b611eab565b5b92915050565b7f4e487b7100000000000000000000000000000000000000000000000000000000600052604160045260246000fd5b7f4e487b7100000000000000000000000000000000000000000000000000000000600052603260045260246000fd5b600061237b826118f1565b91506000820361238e5761238d611eab565b5b600182039050919050565b7f537472696e67733a20686578206c656e67746820696e73756666696369656e74600082015250565b60006123cf602083611d30565b91506123da82612399565b602082019050919050565b600060208201905081810360008301526123fe816123c2565b905091905056fea2646970667358221220cbde1d9d532288570e2b5e0ffc8a6ba82528006057da9d30fd55d960f5c7949f64736f6c63430008130033","opcodes":"PUSH1 0x80 PUSH1 0x40 MSTORE CALLVALUE DUP1 ISZERO PUSH3 0x11 JUMPI PUSH1 0x0 DUP1 REVERT JUMPDEST POP PUSH1 0x40 MLOAD PUSH3 0x273C CODESIZE SUB DUP1 PUSH3 0x273C DUP4 CODECOPY DUP2 DUP2 ADD PUSH1 0x40 MSTORE DUP2 ADD SWAP1 PUSH3 0x37 SWAP2 SWAP1 PUSH3 0x2AA JUMP JUMPDEST PUSH3 0x4C PUSH1 0x0 DUP1 SHL DUP4 PUSH3 0xC7 PUSH1 0x20 SHL PUSH1 0x20 SHR JUMP JUMPDEST PUSH3 0x7E PUSH32 0xA49807205CE4D355092EF5A8A18F56E8913CF4A201FBE287825B095693C21775 DUP4 PUSH3 0xC7 PUSH1 0x20 SHL PUSH1 0x20 SHR JUMP JUMPDEST DUP1 PUSH1 0x5 PUSH1 0x0 PUSH2 0x100 EXP DUP2 SLOAD DUP2 PUSH20 0xFFFFFFFFFFFFFFFFFFFFFFFFFFFFFFFFFFFFFFFF MUL NOT AND SWAP1 DUP4 PUSH20 0xFFFFFFFFFFFFFFFFFFFFFFFFFFFFFFFFFFFFFFFF AND MUL OR SWAP1 SSTORE POP POP POP PUSH3 0x2F1 JUMP JUMPDEST PUSH3 0xD9 DUP3 DUP3 PUSH3 0xDD PUSH1 0x20 SHL PUSH1 0x20 SHR JUMP JUMPDEST POP POP JUMP JUMPDEST PUSH3 0xEF DUP3 DUP3 PUSH3 0x1CE PUSH1 0x20 SHL PUSH1 0x20 SHR JUMP JUMPDEST PUSH3 0x1CA JUMPI PUSH1 0x1 PUSH1 0x0 DUP1 DUP5 DUP2 MSTORE PUSH1 0x20 ADD SWAP1 DUP2 MSTORE PUSH1 0x20 ADD PUSH1 0x0 KECCAK256 PUSH1 0x0 ADD PUSH1 0x0 DUP4 PUSH20 0xFFFFFFFFFFFFFFFFFFFFFFFFFFFFFFFFFFFFFFFF AND PUSH20 0xFFFFFFFFFFFFFFFFFFFFFFFFFFFFFFFFFFFFFFFF AND DUP2 MSTORE PUSH1 0x20 ADD SWAP1 DUP2 MSTORE PUSH1 0x20 ADD PUSH1 0x0 KECCAK256 PUSH1 0x0 PUSH2 0x100 EXP DUP2 SLOAD DUP2 PUSH1 0xFF MUL NOT AND SWAP1 DUP4 ISZERO ISZERO MUL OR SWAP1 SSTORE POP PUSH3 0x16F PUSH3 0x238 PUSH1 0x20 SHL PUSH1 0x20 SHR JUMP JUMPDEST PUSH20 0xFFFFFFFFFFFFFFFFFFFFFFFFFFFFFFFFFFFFFFFF AND DUP2 PUSH20 0xFFFFFFFFFFFFFFFFFFFFFFFFFFFFFFFFFFFFFFFF AND DUP4 PUSH32 0x2F8788117E7EFF1D82E926EC794901D17C78024A50270940304540A733656F0D PUSH1 0x40 MLOAD PUSH1 0x40 MLOAD DUP1 SWAP2 SUB SWAP1 LOG4 JUMPDEST POP POP JUMP JUMPDEST PUSH1 0x0 DUP1 PUSH1 0x0 DUP5 DUP2 MSTORE PUSH1 0x20 ADD SWAP1 DUP2 MSTORE PUSH1 0x20 ADD PUSH1 0x0 KECCAK256 PUSH1 0x0 ADD PUSH1 0x0 DUP4 PUSH20 0xFFFFFFFFFFFFFFFFFFFFFFFFFFFFFFFFFFFFFFFF AND PUSH20 0xFFFFFFFFFFFFFFFFFFFFFFFFFFFFFFFFFFFFFFFF AND DUP2 MSTORE PUSH1 0x20 ADD SWAP1 DUP2 MSTORE PUSH1 0x20 ADD PUSH1 0x0 KECCAK256 PUSH1 0x0 SWAP1 SLOAD SWAP1 PUSH2 0x100 EXP SWAP1 DIV PUSH1 0xFF AND SWAP1 POP SWAP3 SWAP2 POP POP JUMP JUMPDEST PUSH1 0x0 CALLER SWAP1 POP SWAP1 JUMP JUMPDEST PUSH1 0x0 DUP1 REVERT JUMPDEST PUSH1 0x0 PUSH20 0xFFFFFFFFFFFFFFFFFFFFFFFFFFFFFFFFFFFFFFFF DUP3 AND SWAP1 POP SWAP2 SWAP1 POP JUMP JUMPDEST PUSH1 0x0 PUSH3 0x272 DUP3 PUSH3 0x245 JUMP JUMPDEST SWAP1 POP SWAP2 SWAP1 POP JUMP JUMPDEST PUSH3 0x284 DUP2 PUSH3 0x265 JUMP JUMPDEST DUP2 EQ PUSH3 0x290 JUMPI PUSH1 0x0 DUP1 REVERT JUMPDEST POP JUMP JUMPDEST PUSH1 0x0 DUP2 MLOAD SWAP1 POP PUSH3 0x2A4 DUP2 PUSH3 0x279 JUMP JUMPDEST SWAP3 SWAP2 POP POP JUMP JUMPDEST PUSH1 0x0 DUP1 PUSH1 0x40 DUP4 DUP6 SUB SLT ISZERO PUSH3 0x2C4 JUMPI PUSH3 0x2C3 PUSH3 0x240 JUMP JUMPDEST JUMPDEST PUSH1 0x0 PUSH3 0x2D4 DUP6 DUP3 DUP7 ADD PUSH3 0x293 JUMP JUMPDEST SWAP3 POP POP PUSH1 0x20 PUSH3 0x2E7 DUP6 DUP3 DUP7 ADD PUSH3 0x293 JUMP JUMPDEST SWAP2 POP POP SWAP3 POP SWAP3 SWAP1 POP JUMP JUMPDEST PUSH2 0x243B DUP1 PUSH3 0x301 PUSH1 0x0 CODECOPY PUSH1 0x0 RETURN INVALID PUSH1 0x80 PUSH1 0x40 MSTORE PUSH1 0x4 CALLDATASIZE LT PUSH2 0x12E JUMPI PUSH1 0x0 CALLDATALOAD PUSH1 0xE0 SHR DUP1 PUSH4 0x84AC761D GT PUSH2 0xAB JUMPI DUP1 PUSH4 0xC58343EF GT PUSH2 0x6F JUMPI DUP1 PUSH4 0xC58343EF EQ PUSH2 0x42D JUMPI DUP1 PUSH4 0xD547741F EQ PUSH2 0x46A JUMPI DUP1 PUSH4 0xE19CB55B EQ PUSH2 0x493 JUMPI DUP1 PUSH4 0xEAFB79E2 EQ PUSH2 0x4BC JUMPI DUP1 PUSH4 0xEE77418D EQ PUSH2 0x4E7 JUMPI DUP1 PUSH4 0xF0DAF8C9 EQ PUSH2 0x512 JUMPI PUSH2 0x135 JUMP JUMPDEST DUP1 PUSH4 0x84AC761D EQ PUSH2 0x332 JUMPI DUP1 PUSH4 0x91D14854 EQ PUSH2 0x35D JUMPI DUP1 PUSH4 0xA217FDDF EQ PUSH2 0x39A JUMPI DUP1 PUSH4 0xB2CE514B EQ PUSH2 0x3C5 JUMPI DUP1 PUSH4 0xBEB417E9 EQ PUSH2 0x3F0 JUMPI PUSH2 0x135 JUMP JUMPDEST DUP1 PUSH4 0x472F0BCC GT PUSH2 0xF2 JUMPI DUP1 PUSH4 0x472F0BCC EQ PUSH2 0x246 JUMPI DUP1 PUSH4 0x6A84A985 EQ PUSH2 0x26F JUMPI DUP1 PUSH4 0x75B238FC EQ PUSH2 0x29A JUMPI DUP1 PUSH4 0x7F4175F8 EQ PUSH2 0x2C5 JUMPI DUP1 PUSH4 0x81D12C58 EQ PUSH2 0x2EE JUMPI PUSH2 0x135 JUMP JUMPDEST DUP1 PUSH4 0x1FFC9A7 EQ PUSH2 0x13A JUMPI DUP1 PUSH4 0x1F6D4942 EQ PUSH2 0x177 JUMPI DUP1 PUSH4 0x248A9CA3 EQ PUSH2 0x1B7 JUMPI DUP1 PUSH4 0x2F2FF15D EQ PUSH2 0x1F4 JUMPI DUP1 PUSH4 0x36568ABE EQ PUSH2 0x21D JUMPI PUSH2 0x135 JUMP JUMPDEST CALLDATASIZE PUSH2 0x135 JUMPI STOP JUMPDEST PUSH1 0x0 DUP1 REVERT JUMPDEST CALLVALUE DUP1 ISZERO PUSH2 0x146 JUMPI PUSH1 0x0 DUP1 REVERT JUMPDEST POP PUSH2 0x161 PUSH1 0x4 DUP1 CALLDATASIZE SUB DUP2 ADD SWAP1 PUSH2 0x15C SWAP2 SWAP1 PUSH2 0x1803 JUMP JUMPDEST PUSH2 0x52E JUMP JUMPDEST PUSH1 0x40 MLOAD PUSH2 0x16E SWAP2 SWAP1 PUSH2 0x184B JUMP JUMPDEST PUSH1 0x40 MLOAD DUP1 SWAP2 SUB SWAP1 RETURN JUMPDEST CALLVALUE DUP1 ISZERO PUSH2 0x183 JUMPI PUSH1 0x0 DUP1 REVERT JUMPDEST POP PUSH2 0x19E PUSH1 0x4 DUP1 CALLDATASIZE SUB DUP2 ADD SWAP1 PUSH2 0x199 SWAP2 SWAP1 PUSH2 0x18C4 JUMP JUMPDEST PUSH2 0x5A8 JUMP JUMPDEST PUSH1 0x40 MLOAD PUSH2 0x1AE SWAP5 SWAP4 SWAP3 SWAP2 SWAP1 PUSH2 0x1919 JUMP JUMPDEST PUSH1 0x40 MLOAD DUP1 SWAP2 SUB SWAP1 RETURN JUMPDEST CALLVALUE DUP1 ISZERO PUSH2 0x1C3 JUMPI PUSH1 0x0 DUP1 REVERT JUMPDEST POP PUSH2 0x1DE PUSH1 0x4 DUP1 CALLDATASIZE SUB DUP2 ADD SWAP1 PUSH2 0x1D9 SWAP2 SWAP1 PUSH2 0x1994 JUMP JUMPDEST PUSH2 0x605 JUMP JUMPDEST PUSH1 0x40 MLOAD PUSH2 0x1EB SWAP2 SWAP1 PUSH2 0x19D0 JUMP JUMPDEST PUSH1 0x40 MLOAD DUP1 SWAP2 SUB SWAP1 RETURN JUMPDEST CALLVALUE DUP1 ISZERO PUSH2 0x200 JUMPI PUSH1 0x0 DUP1 REVERT JUMPDEST POP PUSH2 0x21B PUSH1 0x4 DUP1 CALLDATASIZE SUB DUP2 ADD SWAP1 PUSH2 0x216 SWAP2 SWAP1 PUSH2 0x19EB JUMP JUMPDEST PUSH2 0x624 JUMP JUMPDEST STOP JUMPDEST CALLVALUE DUP1 ISZERO PUSH2 0x229 JUMPI PUSH1 0x0 DUP1 REVERT JUMPDEST POP PUSH2 0x244 PUSH1 0x4 DUP1 CALLDATASIZE SUB DUP2 ADD SWAP1 PUSH2 0x23F SWAP2 SWAP1 PUSH2 0x19EB JUMP JUMPDEST PUSH2 0x645 JUMP JUMPDEST STOP JUMPDEST CALLVALUE DUP1 ISZERO PUSH2 0x252 JUMPI PUSH1 0x0 DUP1 REVERT JUMPDEST POP PUSH2 0x26D PUSH1 0x4 DUP1 CALLDATASIZE SUB DUP2 ADD SWAP1 PUSH2 0x268 SWAP2 SWAP1 PUSH2 0x1A57 JUMP JUMPDEST PUSH2 0x6C8 JUMP JUMPDEST STOP JUMPDEST CALLVALUE DUP1 ISZERO PUSH2 0x27B JUMPI PUSH1 0x0 DUP1 REVERT JUMPDEST POP PUSH2 0x284 PUSH2 0x94E JUMP JUMPDEST PUSH1 0x40 MLOAD PUSH2 0x291 SWAP2 SWAP1 PUSH2 0x1A97 JUMP JUMPDEST PUSH1 0x40 MLOAD DUP1 SWAP2 SUB SWAP1 RETURN JUMPDEST CALLVALUE DUP1 ISZERO PUSH2 0x2A6 JUMPI PUSH1 0x0 DUP1 REVERT JUMPDEST POP PUSH2 0x2AF PUSH2 0x954 JUMP JUMPDEST PUSH1 0x40 MLOAD PUSH2 0x2BC SWAP2 SWAP1 PUSH2 0x19D0 JUMP JUMPDEST PUSH1 0x40 MLOAD DUP1 SWAP2 SUB SWAP1 RETURN JUMPDEST CALLVALUE DUP1 ISZERO PUSH2 0x2D1 JUMPI PUSH1 0x0 DUP1 REVERT JUMPDEST POP PUSH2 0x2EC PUSH1 0x4 DUP1 CALLDATASIZE SUB DUP2 ADD SWAP1 PUSH2 0x2E7 SWAP2 SWAP1 PUSH2 0x18C4 JUMP JUMPDEST PUSH2 0x978 JUMP JUMPDEST STOP JUMPDEST CALLVALUE DUP1 ISZERO PUSH2 0x2FA JUMPI PUSH1 0x0 DUP1 REVERT JUMPDEST POP PUSH2 0x315 PUSH1 0x4 DUP1 CALLDATASIZE SUB DUP2 ADD SWAP1 PUSH2 0x310 SWAP2 SWAP1 PUSH2 0x1AB2 JUMP JUMPDEST PUSH2 0xA25 JUMP JUMPDEST PUSH1 0x40 MLOAD PUSH2 0x329 SWAP9 SWAP8 SWAP7 SWAP6 SWAP5 SWAP4 SWAP3 SWAP2 SWAP1 PUSH2 0x1ADF JUMP JUMPDEST PUSH1 0x40 MLOAD DUP1 SWAP2 SUB SWAP1 RETURN JUMPDEST CALLVALUE DUP1 ISZERO PUSH2 0x33E JUMPI PUSH1 0x0 DUP1 REVERT JUMPDEST POP PUSH2 0x347 PUSH2 0xAC7 JUMP JUMPDEST PUSH1 0x40 MLOAD PUSH2 0x354 SWAP2 SWAP1 PUSH2 0x1A97 JUMP JUMPDEST PUSH1 0x40 MLOAD DUP1 SWAP2 SUB SWAP1 RETURN JUMPDEST CALLVALUE DUP1 ISZERO PUSH2 0x369 JUMPI PUSH1 0x0 DUP1 REVERT JUMPDEST POP PUSH2 0x384 PUSH1 0x4 DUP1 CALLDATASIZE SUB DUP2 ADD SWAP1 PUSH2 0x37F SWAP2 SWAP1 PUSH2 0x19EB JUMP JUMPDEST PUSH2 0xACD JUMP JUMPDEST PUSH1 0x40 MLOAD PUSH2 0x391 SWAP2 SWAP1 PUSH2 0x184B JUMP JUMPDEST PUSH1 0x40 MLOAD DUP1 SWAP2 SUB SWAP1 RETURN JUMPDEST CALLVALUE DUP1 ISZERO PUSH2 0x3A6 JUMPI PUSH1 0x0 DUP1 REVERT JUMPDEST POP PUSH2 0x3AF PUSH2 0xB37 JUMP JUMPDEST PUSH1 0x40 MLOAD PUSH2 0x3BC SWAP2 SWAP1 PUSH2 0x19D0 JUMP JUMPDEST PUSH1 0x40 MLOAD DUP1 SWAP2 SUB SWAP1 RETURN JUMPDEST CALLVALUE DUP1 ISZERO PUSH2 0x3D1 JUMPI PUSH1 0x0 DUP1 REVERT JUMPDEST POP PUSH2 0x3DA PUSH2 0xB3E JUMP JUMPDEST PUSH1 0x40 MLOAD PUSH2 0x3E7 SWAP2 SWAP1 PUSH2 0x1B5D JUMP JUMPDEST PUSH1 0x40 MLOAD DUP1 SWAP2 SUB SWAP1 RETURN JUMPDEST CALLVALUE DUP1 ISZERO PUSH2 0x3FC JUMPI PUSH1 0x0 DUP1 REVERT JUMPDEST POP PUSH2 0x417 PUSH1 0x4 DUP1 CALLDATASIZE SUB DUP2 ADD SWAP1 PUSH2 0x412 SWAP2 SWAP1 PUSH2 0x1B78 JUMP JUMPDEST PUSH2 0xB64 JUMP JUMPDEST PUSH1 0x40 MLOAD PUSH2 0x424 SWAP2 SWAP1 PUSH2 0x1A97 JUMP JUMPDEST PUSH1 0x40 MLOAD DUP1 SWAP2 SUB SWAP1 RETURN JUMPDEST CALLVALUE DUP1 ISZERO PUSH2 0x439 JUMPI PUSH1 0x0 DUP1 REVERT JUMPDEST POP PUSH2 0x454 PUSH1 0x4 DUP1 CALLDATASIZE SUB DUP2 ADD SWAP1 PUSH2 0x44F SWAP2 SWAP1 PUSH2 0x1AB2 JUMP JUMPDEST PUSH2 0xD80 JUMP JUMPDEST PUSH1 0x40 MLOAD PUSH2 0x461 SWAP2 SWAP1 PUSH2 0x1C9A JUMP JUMPDEST PUSH1 0x40 MLOAD DUP1 SWAP2 SUB SWAP1 RETURN JUMPDEST CALLVALUE DUP1 ISZERO PUSH2 0x476 JUMPI PUSH1 0x0 DUP1 REVERT JUMPDEST POP PUSH2 0x491 PUSH1 0x4 DUP1 CALLDATASIZE SUB DUP2 ADD SWAP1 PUSH2 0x48C SWAP2 SWAP1 PUSH2 0x19EB JUMP JUMPDEST PUSH2 0xEB8 JUMP JUMPDEST STOP JUMPDEST CALLVALUE DUP1 ISZERO PUSH2 0x49F JUMPI PUSH1 0x0 DUP1 REVERT JUMPDEST POP PUSH2 0x4BA PUSH1 0x4 DUP1 CALLDATASIZE SUB DUP2 ADD SWAP1 PUSH2 0x4B5 SWAP2 SWAP1 PUSH2 0x18C4 JUMP JUMPDEST PUSH2 0xED9 JUMP JUMPDEST STOP JUMPDEST CALLVALUE DUP1 ISZERO PUSH2 0x4C8 JUMPI PUSH1 0x0 DUP1 REVERT JUMPDEST POP PUSH2 0x4D1 PUSH2 0xF86 JUMP JUMPDEST PUSH1 0x40 MLOAD PUSH2 0x4DE SWAP2 SWAP1 PUSH2 0x19D0 JUMP JUMPDEST PUSH1 0x40 MLOAD DUP1 SWAP2 SUB SWAP1 RETURN JUMPDEST CALLVALUE DUP1 ISZERO PUSH2 0x4F3 JUMPI PUSH1 0x0 DUP1 REVERT JUMPDEST POP PUSH2 0x4FC PUSH2 0xFAA JUMP JUMPDEST PUSH1 0x40 MLOAD PUSH2 0x509 SWAP2 SWAP1 PUSH2 0x1D15 JUMP JUMPDEST PUSH1 0x40 MLOAD DUP1 SWAP2 SUB SWAP1 RETURN JUMPDEST PUSH2 0x52C PUSH1 0x4 DUP1 CALLDATASIZE SUB DUP2 ADD SWAP1 PUSH2 0x527 SWAP2 SWAP1 PUSH2 0x1AB2 JUMP JUMPDEST PUSH2 0xFD0 JUMP JUMPDEST STOP JUMPDEST PUSH1 0x0 PUSH32 0x7965DB0B00000000000000000000000000000000000000000000000000000000 PUSH28 0xFFFFFFFFFFFFFFFFFFFFFFFFFFFFFFFFFFFFFFFFFFFFFFFFFFFFFFFF NOT AND DUP3 PUSH28 0xFFFFFFFFFFFFFFFFFFFFFFFFFFFFFFFFFFFFFFFFFFFFFFFFFFFFFFFF NOT AND EQ DUP1 PUSH2 0x5A1 JUMPI POP PUSH2 0x5A0 DUP3 PUSH2 0x11EE JUMP JUMPDEST JUMPDEST SWAP1 POP SWAP2 SWAP1 POP JUMP JUMPDEST PUSH1 0x1 PUSH1 0x20 MSTORE DUP1 PUSH1 0x0 MSTORE PUSH1 0x40 PUSH1 0x0 KECCAK256 PUSH1 0x0 SWAP2 POP SWAP1 POP DUP1 PUSH1 0x0 ADD SLOAD SWAP1 DUP1 PUSH1 0x1 ADD PUSH1 0x0 SWAP1 SLOAD SWAP1 PUSH2 0x100 EXP SWAP1 DIV PUSH20 0xFFFFFFFFFFFFFFFFFFFFFFFFFFFFFFFFFFFFFFFF AND SWAP1 DUP1 PUSH1 0x2 ADD SLOAD SWAP1 DUP1 PUSH1 0x3 ADD PUSH1 0x0 SWAP1 SLOAD SWAP1 PUSH2 0x100 EXP SWAP1 DIV PUSH1 0xFF AND SWAP1 POP DUP5 JUMP JUMPDEST PUSH1 0x0 DUP1 PUSH1 0x0 DUP4 DUP2 MSTORE PUSH1 0x20 ADD SWAP1 DUP2 MSTORE PUSH1 0x20 ADD PUSH1 0x0 KECCAK256 PUSH1 0x1 ADD SLOAD SWAP1 POP SWAP2 SWAP1 POP JUMP JUMPDEST PUSH2 0x62D DUP3 PUSH2 0x605 JUMP JUMPDEST PUSH2 0x636 DUP2 PUSH2 0x1258 JUMP JUMPDEST PUSH2 0x640 DUP4 DUP4 PUSH2 0x126C JUMP JUMPDEST POP POP POP JUMP JUMPDEST PUSH2 0x64D PUSH2 0x134C JUMP JUMPDEST PUSH20 0xFFFFFFFFFFFFFFFFFFFFFFFFFFFFFFFFFFFFFFFF AND DUP2 PUSH20 0xFFFFFFFFFFFFFFFFFFFFFFFFFFFFFFFFFFFFFFFF AND EQ PUSH2 0x6BA JUMPI PUSH1 0x40 MLOAD PUSH32 0x8C379A000000000000000000000000000000000000000000000000000000000 DUP2 MSTORE PUSH1 0x4 ADD PUSH2 0x6B1 SWAP1 PUSH2 0x1DB3 JUMP JUMPDEST PUSH1 0x40 MLOAD DUP1 SWAP2 SUB SWAP1 REVERT JUMPDEST PUSH2 0x6C4 DUP3 DUP3 PUSH2 0x1354 JUMP JUMPDEST POP POP JUMP JUMPDEST PUSH2 0x6F2 PUSH32 0xA49807205CE4D355092EF5A8A18F56E8913CF4A201FBE287825B095693C21775 CALLER PUSH2 0xACD JUMP JUMPDEST PUSH2 0x731 JUMPI PUSH1 0x40 MLOAD PUSH32 0x8C379A000000000000000000000000000000000000000000000000000000000 DUP2 MSTORE PUSH1 0x4 ADD PUSH2 0x728 SWAP1 PUSH2 0x1E1F JUMP JUMPDEST PUSH1 0x40 MLOAD DUP1 SWAP2 SUB SWAP1 REVERT JUMPDEST PUSH1 0x1 PUSH1 0x0 DUP4 PUSH20 0xFFFFFFFFFFFFFFFFFFFFFFFFFFFFFFFFFFFFFFFF AND PUSH20 0xFFFFFFFFFFFFFFFFFFFFFFFFFFFFFFFFFFFFFFFF AND DUP2 MSTORE PUSH1 0x20 ADD SWAP1 DUP2 MSTORE PUSH1 0x20 ADD PUSH1 0x0 KECCAK256 PUSH1 0x3 ADD PUSH1 0x0 SWAP1 SLOAD SWAP1 PUSH2 0x100 EXP SWAP1 DIV PUSH1 0xFF AND ISZERO PUSH2 0x7C1 JUMPI PUSH1 0x40 MLOAD PUSH32 0x8C379A000000000000000000000000000000000000000000000000000000000 DUP2 MSTORE PUSH1 0x4 ADD PUSH2 0x7B8 SWAP1 PUSH2 0x1E8B JUMP JUMPDEST PUSH1 0x40 MLOAD DUP1 SWAP2 SUB SWAP1 REVERT JUMPDEST PUSH1 0x40 MLOAD DUP1 PUSH1 0x80 ADD PUSH1 0x40 MSTORE DUP1 PUSH1 0x2 PUSH1 0x0 DUP2 SLOAD PUSH2 0x7DB SWAP1 PUSH2 0x1EDA JUMP JUMPDEST SWAP2 SWAP1 POP DUP2 SWAP1 SSTORE DUP2 MSTORE PUSH1 0x20 ADD DUP4 PUSH20 0xFFFFFFFFFFFFFFFFFFFFFFFFFFFFFFFFFFFFFFFF AND DUP2 MSTORE PUSH1 0x20 ADD DUP3 DUP2 MSTORE PUSH1 0x20 ADD PUSH1 0x1 ISZERO ISZERO DUP2 MSTORE POP PUSH1 0x1 PUSH1 0x0 DUP5 PUSH20 0xFFFFFFFFFFFFFFFFFFFFFFFFFFFFFFFFFFFFFFFF AND PUSH20 0xFFFFFFFFFFFFFFFFFFFFFFFFFFFFFFFFFFFFFFFF AND DUP2 MSTORE PUSH1 0x20 ADD SWAP1 DUP2 MSTORE PUSH1 0x20 ADD PUSH1 0x0 KECCAK256 PUSH1 0x0 DUP3 ADD MLOAD DUP2 PUSH1 0x0 ADD SSTORE PUSH1 0x20 DUP3 ADD MLOAD DUP2 PUSH1 0x1 ADD PUSH1 0x0 PUSH2 0x100 EXP DUP2 SLOAD DUP2 PUSH20 0xFFFFFFFFFFFFFFFFFFFFFFFFFFFFFFFFFFFFFFFF MUL NOT AND SWAP1 DUP4 PUSH20 0xFFFFFFFFFFFFFFFFFFFFFFFFFFFFFFFFFFFFFFFF AND MUL OR SWAP1 SSTORE POP PUSH1 0x40 DUP3 ADD MLOAD DUP2 PUSH1 0x2 ADD SSTORE PUSH1 0x60 DUP3 ADD MLOAD DUP2 PUSH1 0x3 ADD PUSH1 0x0 PUSH2 0x100 EXP DUP2 SLOAD DUP2 PUSH1 0xFF MUL NOT AND SWAP1 DUP4 ISZERO ISZERO MUL OR SWAP1 SSTORE POP SWAP1 POP POP PUSH2 0x8F6 PUSH32 0xE2889E7308860B3FE8DF0DAA86FCCFEA4D71E43776719A57BE28CF90B6DB81E9 DUP4 PUSH2 0x1435 JUMP JUMPDEST DUP2 PUSH20 0xFFFFFFFFFFFFFFFFFFFFFFFFFFFFFFFFFFFFFFFF AND PUSH32 0xAB3480FB7047A80D322BE65B7E5C25906DB00F8E03191940D77D702880EF7D6B PUSH1 0x2 SLOAD DUP4 DUP6 PUSH1 0x40 MLOAD PUSH2 0x942 SWAP4 SWAP3 SWAP2 SWAP1 PUSH2 0x1F22 JUMP JUMPDEST PUSH1 0x40 MLOAD DUP1 SWAP2 SUB SWAP1 LOG2 POP POP JUMP JUMPDEST PUSH1 0x4 SLOAD DUP2 JUMP JUMPDEST PUSH32 0xA49807205CE4D355092EF5A8A18F56E8913CF4A201FBE287825B095693C21775 DUP2 JUMP JUMPDEST PUSH2 0x9A2 PUSH32 0xA49807205CE4D355092EF5A8A18F56E8913CF4A201FBE287825B095693C21775 CALLER PUSH2 0xACD JUMP JUMPDEST PUSH2 0x9E1 JUMPI PUSH1 0x40 MLOAD PUSH32 0x8C379A000000000000000000000000000000000000000000000000000000000 DUP2 MSTORE PUSH1 0x4 ADD PUSH2 0x9D8 SWAP1 PUSH2 0x1E1F JUMP JUMPDEST PUSH1 0x40 MLOAD DUP1 SWAP2 SUB SWAP1 REVERT JUMPDEST DUP1 PUSH1 0x5 PUSH1 0x0 PUSH2 0x100 EXP DUP2 SLOAD DUP2 PUSH20 0xFFFFFFFFFFFFFFFFFFFFFFFFFFFFFFFFFFFFFFFF MUL NOT AND SWAP1 DUP4 PUSH20 0xFFFFFFFFFFFFFFFFFFFFFFFFFFFFFFFFFFFFFFFF AND MUL OR SWAP1 SSTORE POP POP JUMP JUMPDEST PUSH1 0x3 PUSH1 0x20 MSTORE DUP1 PUSH1 0x0 MSTORE PUSH1 0x40 PUSH1 0x0 KECCAK256 PUSH1 0x0 SWAP2 POP SWAP1 POP DUP1 PUSH1 0x0 ADD SLOAD SWAP1 DUP1 PUSH1 0x1 ADD PUSH1 0x0 SWAP1 SLOAD SWAP1 PUSH2 0x100 EXP SWAP1 DIV PUSH20 0xFFFFFFFFFFFFFFFFFFFFFFFFFFFFFFFFFFFFFFFF AND SWAP1 DUP1 PUSH1 0x2 ADD SLOAD SWAP1 DUP1 PUSH1 0x3 ADD SLOAD SWAP1 DUP1 PUSH1 0x4 ADD PUSH1 0x0 SWAP1 SLOAD SWAP1 PUSH2 0x100 EXP SWAP1 DIV PUSH20 0xFFFFFFFFFFFFFFFFFFFFFFFFFFFFFFFFFFFFFFFF AND SWAP1 DUP1 PUSH1 0x4 ADD PUSH1 0x14 SWAP1 SLOAD SWAP1 PUSH2 0x100 EXP SWAP1 DIV PUSH1 0xFF AND SWAP1 DUP1 PUSH1 0x4 ADD PUSH1 0x15 SWAP1 SLOAD SWAP1 PUSH2 0x100 EXP SWAP1 DIV PUSH1 0xFF AND SWAP1 DUP1 PUSH1 0x5 ADD SLOAD SWAP1 POP DUP9 JUMP JUMPDEST PUSH1 0x2 SLOAD DUP2 JUMP JUMPDEST PUSH1 0x0 DUP1 PUSH1 0x0 DUP5 DUP2 MSTORE PUSH1 0x20 ADD SWAP1 DUP2 MSTORE PUSH1 0x20 ADD PUSH1 0x0 KECCAK256 PUSH1 0x0 ADD PUSH1 0x0 DUP4 PUSH20 0xFFFFFFFFFFFFFFFFFFFFFFFFFFFFFFFFFFFFFFFF AND PUSH20 0xFFFFFFFFFFFFFFFFFFFFFFFFFFFFFFFFFFFFFFFF AND DUP2 MSTORE PUSH1 0x20 ADD SWAP1 DUP2 MSTORE PUSH1 0x20 ADD PUSH1 0x0 KECCAK256 PUSH1 0x0 SWAP1 SLOAD SWAP1 PUSH2 0x100 EXP SWAP1 DIV PUSH1 0xFF AND SWAP1 POP SWAP3 SWAP2 POP POP JUMP JUMPDEST PUSH1 0x0 DUP1 SHL DUP2 JUMP JUMPDEST PUSH1 0x6 PUSH1 0x0 SWAP1 SLOAD SWAP1 PUSH2 0x100 EXP SWAP1 DIV PUSH20 0xFFFFFFFFFFFFFFFFFFFFFFFFFFFFFFFFFFFFFFFF AND DUP2 JUMP JUMPDEST PUSH1 0x0 PUSH32 0xE2889E7308860B3FE8DF0DAA86FCCFEA4D71E43776719A57BE28CF90B6DB81E9 PUSH2 0xB90 DUP2 PUSH2 0x1258 JUMP JUMPDEST PUSH1 0x0 PUSH1 0x4 PUSH1 0x0 DUP2 SLOAD PUSH2 0xBA1 SWAP1 PUSH2 0x1EDA JUMP JUMPDEST SWAP2 SWAP1 POP DUP2 SWAP1 SSTORE SWAP1 POP PUSH1 0x40 MLOAD DUP1 PUSH2 0x100 ADD PUSH1 0x40 MSTORE DUP1 DUP3 DUP2 MSTORE PUSH1 0x20 ADD CALLER PUSH20 0xFFFFFFFFFFFFFFFFFFFFFFFFFFFFFFFFFFFFFFFF AND DUP2 MSTORE PUSH1 0x20 ADD DUP8 DUP2 MSTORE PUSH1 0x20 ADD DUP7 DUP2 MSTORE PUSH1 0x20 ADD DUP6 PUSH20 0xFFFFFFFFFFFFFFFFFFFFFFFFFFFFFFFFFFFFFFFF AND DUP2 MSTORE PUSH1 0x20 ADD PUSH1 0x0 ISZERO ISZERO DUP2 MSTORE PUSH1 0x20 ADD PUSH1 0x0 ISZERO ISZERO DUP2 MSTORE PUSH1 0x20 ADD TIMESTAMP DUP2 MSTORE POP PUSH1 0x3 PUSH1 0x0 DUP4 DUP2 MSTORE PUSH1 0x20 ADD SWAP1 DUP2 MSTORE PUSH1 0x20 ADD PUSH1 0x0 KECCAK256 PUSH1 0x0 DUP3 ADD MLOAD DUP2 PUSH1 0x0 ADD SSTORE PUSH1 0x20 DUP3 ADD MLOAD DUP2 PUSH1 0x1 ADD PUSH1 0x0 PUSH2 0x100 EXP DUP2 SLOAD DUP2 PUSH20 0xFFFFFFFFFFFFFFFFFFFFFFFFFFFFFFFFFFFFFFFF MUL NOT AND SWAP1 DUP4 PUSH20 0xFFFFFFFFFFFFFFFFFFFFFFFFFFFFFFFFFFFFFFFF AND MUL OR SWAP1 SSTORE POP PUSH1 0x40 DUP3 ADD MLOAD DUP2 PUSH1 0x2 ADD SSTORE PUSH1 0x60 DUP3 ADD MLOAD DUP2 PUSH1 0x3 ADD SSTORE PUSH1 0x80 DUP3 ADD MLOAD DUP2 PUSH1 0x4 ADD PUSH1 0x0 PUSH2 0x100 EXP DUP2 SLOAD DUP2 PUSH20 0xFFFFFFFFFFFFFFFFFFFFFFFFFFFFFFFFFFFFFFFF MUL NOT AND SWAP1 DUP4 PUSH20 0xFFFFFFFFFFFFFFFFFFFFFFFFFFFFFFFFFFFFFFFF AND MUL OR SWAP1 SSTORE POP PUSH1 0xA0 DUP3 ADD MLOAD DUP2 PUSH1 0x4 ADD PUSH1 0x14 PUSH2 0x100 EXP DUP2 SLOAD DUP2 PUSH1 0xFF MUL NOT AND SWAP1 DUP4 ISZERO ISZERO MUL OR SWAP1 SSTORE POP PUSH1 0xC0 DUP3 ADD MLOAD DUP2 PUSH1 0x4 ADD PUSH1 0x15 PUSH2 0x100 EXP DUP2 SLOAD DUP2 PUSH1 0xFF MUL NOT AND SWAP1 DUP4 ISZERO ISZERO MUL OR SWAP1 SSTORE POP PUSH1 0xE0 DUP3 ADD MLOAD DUP2 PUSH1 0x5 ADD SSTORE SWAP1 POP POP CALLER PUSH20 0xFFFFFFFFFFFFFFFFFFFFFFFFFFFFFFFFFFFFFFFF AND DUP2 PUSH32 0x48027D678FBFA59CB7069084469077139C94549D2C0DBE8EB8DF8603E705D85D DUP9 DUP9 DUP9 PUSH1 0x40 MLOAD PUSH2 0xD6C SWAP4 SWAP3 SWAP2 SWAP1 PUSH2 0x1F22 JUMP JUMPDEST PUSH1 0x40 MLOAD DUP1 SWAP2 SUB SWAP1 LOG3 DUP1 SWAP3 POP POP POP SWAP4 SWAP3 POP POP POP JUMP JUMPDEST PUSH2 0xD88 PUSH2 0x1731 JUMP JUMPDEST PUSH1 0x3 PUSH1 0x0 DUP4 DUP2 MSTORE PUSH1 0x20 ADD SWAP1 DUP2 MSTORE PUSH1 0x20 ADD PUSH1 0x0 KECCAK256 PUSH1 0x40 MLOAD DUP1 PUSH2 0x100 ADD PUSH1 0x40 MSTORE SWAP1 DUP2 PUSH1 0x0 DUP3 ADD SLOAD DUP2 MSTORE PUSH1 0x20 ADD PUSH1 0x1 DUP3 ADD PUSH1 0x0 SWAP1 SLOAD SWAP1 PUSH2 0x100 EXP SWAP1 DIV PUSH20 0xFFFFFFFFFFFFFFFFFFFFFFFFFFFFFFFFFFFFFFFF AND PUSH20 0xFFFFFFFFFFFFFFFFFFFFFFFFFFFFFFFFFFFFFFFF AND PUSH20 0xFFFFFFFFFFFFFFFFFFFFFFFFFFFFFFFFFFFFFFFF AND DUP2 MSTORE PUSH1 0x20 ADD PUSH1 0x2 DUP3 ADD SLOAD DUP2 MSTORE PUSH1 0x20 ADD PUSH1 0x3 DUP3 ADD SLOAD DUP2 MSTORE PUSH1 0x20 ADD PUSH1 0x4 DUP3 ADD PUSH1 0x0 SWAP1 SLOAD SWAP1 PUSH2 0x100 EXP SWAP1 DIV PUSH20 0xFFFFFFFFFFFFFFFFFFFFFFFFFFFFFFFFFFFFFFFF AND PUSH20 0xFFFFFFFFFFFFFFFFFFFFFFFFFFFFFFFFFFFFFFFF AND PUSH20 0xFFFFFFFFFFFFFFFFFFFFFFFFFFFFFFFFFFFFFFFF AND DUP2 MSTORE PUSH1 0x20 ADD PUSH1 0x4 DUP3 ADD PUSH1 0x14 SWAP1 SLOAD SWAP1 PUSH2 0x100 EXP SWAP1 DIV PUSH1 0xFF AND ISZERO ISZERO ISZERO ISZERO DUP2 MSTORE PUSH1 0x20 ADD PUSH1 0x4 DUP3 ADD PUSH1 0x15 SWAP1 SLOAD SWAP1 PUSH2 0x100 EXP SWAP1 DIV PUSH1 0xFF AND ISZERO ISZERO ISZERO ISZERO DUP2 MSTORE PUSH1 0x20 ADD PUSH1 0x5 DUP3 ADD SLOAD DUP2 MSTORE POP POP SWAP1 POP SWAP2 SWAP1 POP JUMP JUMPDEST PUSH2 0xEC1 DUP3 PUSH2 0x605 JUMP JUMPDEST PUSH2 0xECA DUP2 PUSH2 0x1258 JUMP JUMPDEST PUSH2 0xED4 DUP4 DUP4 PUSH2 0x1354 JUMP JUMPDEST POP POP POP JUMP JUMPDEST PUSH2 0xF03 PUSH32 0xA49807205CE4D355092EF5A8A18F56E8913CF4A201FBE287825B095693C21775 CALLER PUSH2 0xACD JUMP JUMPDEST PUSH2 0xF42 JUMPI PUSH1 0x40 MLOAD PUSH32 0x8C379A000000000000000000000000000000000000000000000000000000000 DUP2 MSTORE PUSH1 0x4 ADD PUSH2 0xF39 SWAP1 PUSH2 0x1E1F JUMP JUMPDEST PUSH1 0x40 MLOAD DUP1 SWAP2 SUB SWAP1 REVERT JUMPDEST DUP1 PUSH1 0x6 PUSH1 0x0 PUSH2 0x100 EXP DUP2 SLOAD DUP2 PUSH20 0xFFFFFFFFFFFFFFFFFFFFFFFFFFFFFFFFFFFFFFFF MUL NOT AND SWAP1 DUP4 PUSH20 0xFFFFFFFFFFFFFFFFFFFFFFFFFFFFFFFFFFFFFFFF AND MUL OR SWAP1 SSTORE POP POP JUMP JUMPDEST PUSH32 0xE2889E7308860B3FE8DF0DAA86FCCFEA4D71E43776719A57BE28CF90B6DB81E9 DUP2 JUMP JUMPDEST PUSH1 0x5 PUSH1 0x0 SWAP1 SLOAD SWAP1 PUSH2 0x100 EXP SWAP1 DIV PUSH20 0xFFFFFFFFFFFFFFFFFFFFFFFFFFFFFFFFFFFFFFFF AND DUP2 JUMP JUMPDEST PUSH2 0xFFA PUSH32 0xA49807205CE4D355092EF5A8A18F56E8913CF4A201FBE287825B095693C21775 CALLER PUSH2 0xACD JUMP JUMPDEST PUSH2 0x1039 JUMPI PUSH1 0x40 MLOAD PUSH32 0x8C379A000000000000000000000000000000000000000000000000000000000 DUP2 MSTORE PUSH1 0x4 ADD PUSH2 0x1030 SWAP1 PUSH2 0x1E1F JUMP JUMPDEST PUSH1 0x40 MLOAD DUP1 SWAP2 SUB SWAP1 REVERT JUMPDEST PUSH1 0x0 PUSH1 0x3 PUSH1 0x0 DUP4 DUP2 MSTORE PUSH1 0x20 ADD SWAP1 DUP2 MSTORE PUSH1 0x20 ADD PUSH1 0x0 KECCAK256 SWAP1 POP DUP2 DUP2 PUSH1 0x0 ADD SLOAD EQ PUSH2 0x1096 JUMPI PUSH1 0x40 MLOAD PUSH32 0x8C379A000000000000000000000000000000000000000000000000000000000 DUP2 MSTORE PUSH1 0x4 ADD PUSH2 0x108D SWAP1 PUSH2 0x1FA5 JUMP JUMPDEST PUSH1 0x40 MLOAD DUP1 SWAP2 SUB SWAP1 REVERT JUMPDEST DUP1 PUSH1 0x4 ADD PUSH1 0x15 SWAP1 SLOAD SWAP1 PUSH2 0x100 EXP SWAP1 DIV PUSH1 0xFF AND ISZERO PUSH2 0x10E8 JUMPI PUSH1 0x40 MLOAD PUSH32 0x8C379A000000000000000000000000000000000000000000000000000000000 DUP2 MSTORE PUSH1 0x4 ADD PUSH2 0x10DF SWAP1 PUSH2 0x2011 JUMP JUMPDEST PUSH1 0x40 MLOAD DUP1 SWAP2 SUB SWAP1 REVERT JUMPDEST PUSH1 0x0 DUP2 PUSH1 0x4 ADD PUSH1 0x0 SWAP1 SLOAD SWAP1 PUSH2 0x100 EXP SWAP1 DIV PUSH20 0xFFFFFFFFFFFFFFFFFFFFFFFFFFFFFFFFFFFFFFFF AND DUP3 PUSH1 0x2 ADD SLOAD DUP5 PUSH1 0x40 MLOAD PUSH1 0x20 ADD PUSH2 0x1127 SWAP4 SWAP3 SWAP2 SWAP1 PUSH2 0x2031 JUMP JUMPDEST PUSH1 0x40 MLOAD PUSH1 0x20 DUP2 DUP4 SUB SUB DUP2 MSTORE SWAP1 PUSH1 0x40 MSTORE SWAP1 POP PUSH1 0x5 PUSH1 0x0 SWAP1 SLOAD SWAP1 PUSH2 0x100 EXP SWAP1 DIV PUSH20 0xFFFFFFFFFFFFFFFFFFFFFFFFFFFFFFFFFFFFFFFF AND PUSH20 0xFFFFFFFFFFFFFFFFFFFFFFFFFFFFFFFFFFFFFFFF AND PUSH4 0xC5E99ACA CALLVALUE DUP4 DUP6 PUSH1 0x3 ADD SLOAD PUSH1 0x40 MLOAD DUP5 PUSH4 0xFFFFFFFF AND PUSH1 0xE0 SHL DUP2 MSTORE PUSH1 0x4 ADD PUSH2 0x119A SWAP3 SWAP2 SWAP1 PUSH2 0x20F8 JUMP JUMPDEST PUSH1 0x0 PUSH1 0x40 MLOAD DUP1 DUP4 SUB DUP2 DUP6 DUP9 DUP1 EXTCODESIZE ISZERO DUP1 ISZERO PUSH2 0x11B3 JUMPI PUSH1 0x0 DUP1 REVERT JUMPDEST POP GAS CALL ISZERO DUP1 ISZERO PUSH2 0x11C7 JUMPI RETURNDATASIZE PUSH1 0x0 DUP1 RETURNDATACOPY RETURNDATASIZE PUSH1 0x0 REVERT JUMPDEST POP POP POP POP POP PUSH1 0x1 DUP3 PUSH1 0x4 ADD PUSH1 0x15 PUSH2 0x100 EXP DUP2 SLOAD DUP2 PUSH1 0xFF MUL NOT AND SWAP1 DUP4 ISZERO ISZERO MUL OR SWAP1 SSTORE POP POP POP POP JUMP JUMPDEST PUSH1 0x0 PUSH32 0x1FFC9A700000000000000000000000000000000000000000000000000000000 PUSH28 0xFFFFFFFFFFFFFFFFFFFFFFFFFFFFFFFFFFFFFFFFFFFFFFFFFFFFFFFF NOT AND DUP3 PUSH28 0xFFFFFFFFFFFFFFFFFFFFFFFFFFFFFFFFFFFFFFFFFFFFFFFFFFFFFFFF NOT AND EQ SWAP1 POP SWAP2 SWAP1 POP JUMP JUMPDEST PUSH2 0x1269 DUP2 PUSH2 0x1264 PUSH2 0x134C JUMP JUMPDEST PUSH2 0x1443 JUMP JUMPDEST POP JUMP JUMPDEST PUSH2 0x1276 DUP3 DUP3 PUSH2 0xACD JUMP JUMPDEST PUSH2 0x1348 JUMPI PUSH1 0x1 PUSH1 0x0 DUP1 DUP5 DUP2 MSTORE PUSH1 0x20 ADD SWAP1 DUP2 MSTORE PUSH1 0x20 ADD PUSH1 0x0 KECCAK256 PUSH1 0x0 ADD PUSH1 0x0 DUP4 PUSH20 0xFFFFFFFFFFFFFFFFFFFFFFFFFFFFFFFFFFFFFFFF AND PUSH20 0xFFFFFFFFFFFFFFFFFFFFFFFFFFFFFFFFFFFFFFFF AND DUP2 MSTORE PUSH1 0x20 ADD SWAP1 DUP2 MSTORE PUSH1 0x20 ADD PUSH1 0x0 KECCAK256 PUSH1 0x0 PUSH2 0x100 EXP DUP2 SLOAD DUP2 PUSH1 0xFF MUL NOT AND SWAP1 DUP4 ISZERO ISZERO MUL OR SWAP1 SSTORE POP PUSH2 0x12ED PUSH2 0x134C JUMP JUMPDEST PUSH20 0xFFFFFFFFFFFFFFFFFFFFFFFFFFFFFFFFFFFFFFFF AND DUP2 PUSH20 0xFFFFFFFFFFFFFFFFFFFFFFFFFFFFFFFFFFFFFFFF AND DUP4 PUSH32 0x2F8788117E7EFF1D82E926EC794901D17C78024A50270940304540A733656F0D PUSH1 0x40 MLOAD PUSH1 0x40 MLOAD DUP1 SWAP2 SUB SWAP1 LOG4 JUMPDEST POP POP JUMP JUMPDEST PUSH1 0x0 CALLER SWAP1 POP SWAP1 JUMP JUMPDEST PUSH2 0x135E DUP3 DUP3 PUSH2 0xACD JUMP JUMPDEST ISZERO PUSH2 0x1431 JUMPI PUSH1 0x0 DUP1 PUSH1 0x0 DUP5 DUP2 MSTORE PUSH1 0x20 ADD SWAP1 DUP2 MSTORE PUSH1 0x20 ADD PUSH1 0x0 KECCAK256 PUSH1 0x0 ADD PUSH1 0x0 DUP4 PUSH20 0xFFFFFFFFFFFFFFFFFFFFFFFFFFFFFFFFFFFFFFFF AND PUSH20 0xFFFFFFFFFFFFFFFFFFFFFFFFFFFFFFFFFFFFFFFF AND DUP2 MSTORE PUSH1 0x20 ADD SWAP1 DUP2 MSTORE PUSH1 0x20 ADD PUSH1 0x0 KECCAK256 PUSH1 0x0 PUSH2 0x100 EXP DUP2 SLOAD DUP2 PUSH1 0xFF MUL NOT AND SWAP1 DUP4 ISZERO ISZERO MUL OR SWAP1 SSTORE POP PUSH2 0x13D6 PUSH2 0x134C JUMP JUMPDEST PUSH20 0xFFFFFFFFFFFFFFFFFFFFFFFFFFFFFFFFFFFFFFFF AND DUP2 PUSH20 0xFFFFFFFFFFFFFFFFFFFFFFFFFFFFFFFFFFFFFFFF AND DUP4 PUSH32 0xF6391F5C32D9C69D2A47EA670B442974B53935D1EDC7FD64EB21E047A839171B PUSH1 0x40 MLOAD PUSH1 0x40 MLOAD DUP1 SWAP2 SUB SWAP1 LOG4 JUMPDEST POP POP JUMP JUMPDEST PUSH2 0x143F DUP3 DUP3 PUSH2 0x126C JUMP JUMPDEST POP POP JUMP JUMPDEST PUSH2 0x144D DUP3 DUP3 PUSH2 0xACD JUMP JUMPDEST PUSH2 0x14C4 JUMPI PUSH2 0x145A DUP2 PUSH2 0x14C8 JUMP JUMPDEST PUSH2 0x1468 DUP4 PUSH1 0x0 SHR PUSH1 0x20 PUSH2 0x14F5 JUMP JUMPDEST PUSH1 0x40 MLOAD PUSH1 0x20 ADD PUSH2 0x1479 SWAP3 SWAP2 SWAP1 PUSH2 0x2207 JUMP JUMPDEST PUSH1 0x40 MLOAD PUSH1 0x20 DUP2 DUP4 SUB SUB DUP2 MSTORE SWAP1 PUSH1 0x40 MSTORE PUSH1 0x40 MLOAD PUSH32 0x8C379A000000000000000000000000000000000000000000000000000000000 DUP2 MSTORE PUSH1 0x4 ADD PUSH2 0x14BB SWAP2 SWAP1 PUSH2 0x227A JUMP JUMPDEST PUSH1 0x40 MLOAD DUP1 SWAP2 SUB SWAP1 REVERT JUMPDEST POP POP JUMP JUMPDEST PUSH1 0x60 PUSH2 0x14EE DUP3 PUSH20 0xFFFFFFFFFFFFFFFFFFFFFFFFFFFFFFFFFFFFFFFF AND PUSH1 0x14 PUSH1 0xFF AND PUSH2 0x14F5 JUMP JUMPDEST SWAP1 POP SWAP2 SWAP1 POP JUMP JUMPDEST PUSH1 0x60 PUSH1 0x0 PUSH1 0x2 DUP4 PUSH1 0x2 PUSH2 0x1508 SWAP2 SWAP1 PUSH2 0x229C JUMP JUMPDEST PUSH2 0x1512 SWAP2 SWAP1 PUSH2 0x22DE JUMP JUMPDEST PUSH8 0xFFFFFFFFFFFFFFFF DUP2 GT ISZERO PUSH2 0x152B JUMPI PUSH2 0x152A PUSH2 0x2312 JUMP JUMPDEST JUMPDEST PUSH1 0x40 MLOAD SWAP1 DUP1 DUP3 MSTORE DUP1 PUSH1 0x1F ADD PUSH1 0x1F NOT AND PUSH1 0x20 ADD DUP3 ADD PUSH1 0x40 MSTORE DUP1 ISZERO PUSH2 0x155D JUMPI DUP2 PUSH1 0x20 ADD PUSH1 0x1 DUP3 MUL DUP1 CALLDATASIZE DUP4 CALLDATACOPY DUP1 DUP3 ADD SWAP2 POP POP SWAP1 POP JUMPDEST POP SWAP1 POP PUSH32 0x3000000000000000000000000000000000000000000000000000000000000000 DUP2 PUSH1 0x0 DUP2 MLOAD DUP2 LT PUSH2 0x1595 JUMPI PUSH2 0x1594 PUSH2 0x2341 JUMP JUMPDEST JUMPDEST PUSH1 0x20 ADD ADD SWAP1 PUSH31 0xFFFFFFFFFFFFFFFFFFFFFFFFFFFFFFFFFFFFFFFFFFFFFFFFFFFFFFFFFFFFFF NOT AND SWAP1 DUP2 PUSH1 0x0 BYTE SWAP1 MSTORE8 POP PUSH32 0x7800000000000000000000000000000000000000000000000000000000000000 DUP2 PUSH1 0x1 DUP2 MLOAD DUP2 LT PUSH2 0x15F9 JUMPI PUSH2 0x15F8 PUSH2 0x2341 JUMP JUMPDEST JUMPDEST PUSH1 0x20 ADD ADD SWAP1 PUSH31 0xFFFFFFFFFFFFFFFFFFFFFFFFFFFFFFFFFFFFFFFFFFFFFFFFFFFFFFFFFFFFFF NOT AND SWAP1 DUP2 PUSH1 0x0 BYTE SWAP1 MSTORE8 POP PUSH1 0x0 PUSH1 0x1 DUP5 PUSH1 0x2 PUSH2 0x1639 SWAP2 SWAP1 PUSH2 0x229C JUMP JUMPDEST PUSH2 0x1643 SWAP2 SWAP1 PUSH2 0x22DE JUMP JUMPDEST SWAP1 POP JUMPDEST PUSH1 0x1 DUP2 GT ISZERO PUSH2 0x16E3 JUMPI PUSH32 0x3031323334353637383961626364656600000000000000000000000000000000 PUSH1 0xF DUP7 AND PUSH1 0x10 DUP2 LT PUSH2 0x1685 JUMPI PUSH2 0x1684 PUSH2 0x2341 JUMP JUMPDEST JUMPDEST BYTE PUSH1 0xF8 SHL DUP3 DUP3 DUP2 MLOAD DUP2 LT PUSH2 0x169C JUMPI PUSH2 0x169B PUSH2 0x2341 JUMP JUMPDEST JUMPDEST PUSH1 0x20 ADD ADD SWAP1 PUSH31 0xFFFFFFFFFFFFFFFFFFFFFFFFFFFFFFFFFFFFFFFFFFFFFFFFFFFFFFFFFFFFFF NOT AND SWAP1 DUP2 PUSH1 0x0 BYTE SWAP1 MSTORE8 POP PUSH1 0x4 DUP6 SWAP1 SHR SWAP5 POP DUP1 PUSH2 0x16DC SWAP1 PUSH2 0x2370 JUMP JUMPDEST SWAP1 POP PUSH2 0x1646 JUMP JUMPDEST POP PUSH1 0x0 DUP5 EQ PUSH2 0x1727 JUMPI PUSH1 0x40 MLOAD PUSH32 0x8C379A000000000000000000000000000000000000000000000000000000000 DUP2 MSTORE PUSH1 0x4 ADD PUSH2 0x171E SWAP1 PUSH2 0x23E5 JUMP JUMPDEST PUSH1 0x40 MLOAD DUP1 SWAP2 SUB SWAP1 REVERT JUMPDEST DUP1 SWAP2 POP POP SWAP3 SWAP2 POP POP JUMP JUMPDEST PUSH1 0x40 MLOAD DUP1 PUSH2 0x100 ADD PUSH1 0x40 MSTORE DUP1 PUSH1 0x0 DUP2 MSTORE PUSH1 0x20 ADD PUSH1 0x0 PUSH20 0xFFFFFFFFFFFFFFFFFFFFFFFFFFFFFFFFFFFFFFFF AND DUP2 MSTORE PUSH1 0x20 ADD PUSH1 0x0 DUP2 MSTORE PUSH1 0x20 ADD PUSH1 0x0 DUP2 MSTORE PUSH1 0x20 ADD PUSH1 0x0 PUSH20 0xFFFFFFFFFFFFFFFFFFFFFFFFFFFFFFFFFFFFFFFF AND DUP2 MSTORE PUSH1 0x20 ADD PUSH1 0x0 ISZERO ISZERO DUP2 MSTORE PUSH1 0x20 ADD PUSH1 0x0 ISZERO ISZERO DUP2 MSTORE PUSH1 0x20 ADD PUSH1 0x0 DUP2 MSTORE POP SWAP1 JUMP JUMPDEST PUSH1 0x0 DUP1 REVERT JUMPDEST PUSH1 0x0 PUSH32 0xFFFFFFFF00000000000000000000000000000000000000000000000000000000 DUP3 AND SWAP1 POP SWAP2 SWAP1 POP JUMP JUMPDEST PUSH2 0x17E0 DUP2 PUSH2 0x17AB JUMP JUMPDEST DUP2 EQ PUSH2 0x17EB JUMPI PUSH1 0x0 DUP1 REVERT JUMPDEST POP JUMP JUMPDEST PUSH1 0x0 DUP2 CALLDATALOAD SWAP1 POP PUSH2 0x17FD DUP2 PUSH2 0x17D7 JUMP JUMPDEST SWAP3 SWAP2 POP POP JUMP JUMPDEST PUSH1 0x0 PUSH1 0x20 DUP3 DUP5 SUB SLT ISZERO PUSH2 0x1819 JUMPI PUSH2 0x1818 PUSH2 0x17A6 JUMP JUMPDEST JUMPDEST PUSH1 0x0 PUSH2 0x1827 DUP5 DUP3 DUP6 ADD PUSH2 0x17EE JUMP JUMPDEST SWAP2 POP POP SWAP3 SWAP2 POP POP JUMP JUMPDEST PUSH1 0x0 DUP2 ISZERO ISZERO SWAP1 POP SWAP2 SWAP1 POP JUMP JUMPDEST PUSH2 0x1845 DUP2 PUSH2 0x1830 JUMP JUMPDEST DUP3 MSTORE POP POP JUMP JUMPDEST PUSH1 0x0 PUSH1 0x20 DUP3 ADD SWAP1 POP PUSH2 0x1860 PUSH1 0x0 DUP4 ADD DUP5 PUSH2 0x183C JUMP JUMPDEST SWAP3 SWAP2 POP POP JUMP JUMPDEST PUSH1 0x0 PUSH20 0xFFFFFFFFFFFFFFFFFFFFFFFFFFFFFFFFFFFFFFFF DUP3 AND SWAP1 POP SWAP2 SWAP1 POP JUMP JUMPDEST PUSH1 0x0 PUSH2 0x1891 DUP3 PUSH2 0x1866 JUMP JUMPDEST SWAP1 POP SWAP2 SWAP1 POP JUMP JUMPDEST PUSH2 0x18A1 DUP2 PUSH2 0x1886 JUMP JUMPDEST DUP2 EQ PUSH2 0x18AC JUMPI PUSH1 0x0 DUP1 REVERT JUMPDEST POP JUMP JUMPDEST PUSH1 0x0 DUP2 CALLDATALOAD SWAP1 POP PUSH2 0x18BE DUP2 PUSH2 0x1898 JUMP JUMPDEST SWAP3 SWAP2 POP POP JUMP JUMPDEST PUSH1 0x0 PUSH1 0x20 DUP3 DUP5 SUB SLT ISZERO PUSH2 0x18DA JUMPI PUSH2 0x18D9 PUSH2 0x17A6 JUMP JUMPDEST JUMPDEST PUSH1 0x0 PUSH2 0x18E8 DUP5 DUP3 DUP6 ADD PUSH2 0x18AF JUMP JUMPDEST SWAP2 POP POP SWAP3 SWAP2 POP POP JUMP JUMPDEST PUSH1 0x0 DUP2 SWAP1 POP SWAP2 SWAP1 POP JUMP JUMPDEST PUSH2 0x1904 DUP2 PUSH2 0x18F1 JUMP JUMPDEST DUP3 MSTORE POP POP JUMP JUMPDEST PUSH2 0x1913 DUP2 PUSH2 0x1886 JUMP JUMPDEST DUP3 MSTORE POP POP JUMP JUMPDEST PUSH1 0x0 PUSH1 0x80 DUP3 ADD SWAP1 POP PUSH2 0x192E PUSH1 0x0 DUP4 ADD DUP8 PUSH2 0x18FB JUMP JUMPDEST PUSH2 0x193B PUSH1 0x20 DUP4 ADD DUP7 PUSH2 0x190A JUMP JUMPDEST PUSH2 0x1948 PUSH1 0x40 DUP4 ADD DUP6 PUSH2 0x18FB JUMP JUMPDEST PUSH2 0x1955 PUSH1 0x60 DUP4 ADD DUP5 PUSH2 0x183C JUMP JUMPDEST SWAP6 SWAP5 POP POP POP POP POP JUMP JUMPDEST PUSH1 0x0 DUP2 SWAP1 POP SWAP2 SWAP1 POP JUMP JUMPDEST PUSH2 0x1971 DUP2 PUSH2 0x195E JUMP JUMPDEST DUP2 EQ PUSH2 0x197C JUMPI PUSH1 0x0 DUP1 REVERT JUMPDEST POP JUMP JUMPDEST PUSH1 0x0 DUP2 CALLDATALOAD SWAP1 POP PUSH2 0x198E DUP2 PUSH2 0x1968 JUMP JUMPDEST SWAP3 SWAP2 POP POP JUMP JUMPDEST PUSH1 0x0 PUSH1 0x20 DUP3 DUP5 SUB SLT ISZERO PUSH2 0x19AA JUMPI PUSH2 0x19A9 PUSH2 0x17A6 JUMP JUMPDEST JUMPDEST PUSH1 0x0 PUSH2 0x19B8 DUP5 DUP3 DUP6 ADD PUSH2 0x197F JUMP JUMPDEST SWAP2 POP POP SWAP3 SWAP2 POP POP JUMP JUMPDEST PUSH2 0x19CA DUP2 PUSH2 0x195E JUMP JUMPDEST DUP3 MSTORE POP POP JUMP JUMPDEST PUSH1 0x0 PUSH1 0x20 DUP3 ADD SWAP1 POP PUSH2 0x19E5 PUSH1 0x0 DUP4 ADD DUP5 PUSH2 0x19C1 JUMP JUMPDEST SWAP3 SWAP2 POP POP JUMP JUMPDEST PUSH1 0x0 DUP1 PUSH1 0x40 DUP4 DUP6 SUB SLT ISZERO PUSH2 0x1A02 JUMPI PUSH2 0x1A01 PUSH2 0x17A6 JUMP JUMPDEST JUMPDEST PUSH1 0x0 PUSH2 0x1A10 DUP6 DUP3 DUP7 ADD PUSH2 0x197F JUMP JUMPDEST SWAP3 POP POP PUSH1 0x20 PUSH2 0x1A21 DUP6 DUP3 DUP7 ADD PUSH2 0x18AF JUMP JUMPDEST SWAP2 POP POP SWAP3 POP SWAP3 SWAP1 POP JUMP JUMPDEST PUSH2 0x1A34 DUP2 PUSH2 0x18F1 JUMP JUMPDEST DUP2 EQ PUSH2 0x1A3F JUMPI PUSH1 0x0 DUP1 REVERT JUMPDEST POP JUMP JUMPDEST PUSH1 0x0 DUP2 CALLDATALOAD SWAP1 POP PUSH2 0x1A51 DUP2 PUSH2 0x1A2B JUMP JUMPDEST SWAP3 SWAP2 POP POP JUMP JUMPDEST PUSH1 0x0 DUP1 PUSH1 0x40 DUP4 DUP6 SUB SLT ISZERO PUSH2 0x1A6E JUMPI PUSH2 0x1A6D PUSH2 0x17A6 JUMP JUMPDEST JUMPDEST PUSH1 0x0 PUSH2 0x1A7C DUP6 DUP3 DUP7 ADD PUSH2 0x18AF JUMP JUMPDEST SWAP3 POP POP PUSH1 0x20 PUSH2 0x1A8D DUP6 DUP3 DUP7 ADD PUSH2 0x1A42 JUMP JUMPDEST SWAP2 POP POP SWAP3 POP SWAP3 SWAP1 POP JUMP JUMPDEST PUSH1 0x0 PUSH1 0x20 DUP3 ADD SWAP1 POP PUSH2 0x1AAC PUSH1 0x0 DUP4 ADD DUP5 PUSH2 0x18FB JUMP JUMPDEST SWAP3 SWAP2 POP POP JUMP JUMPDEST PUSH1 0x0 PUSH1 0x20 DUP3 DUP5 SUB SLT ISZERO PUSH2 0x1AC8 JUMPI PUSH2 0x1AC7 PUSH2 0x17A6 JUMP JUMPDEST JUMPDEST PUSH1 0x0 PUSH2 0x1AD6 DUP5 DUP3 DUP6 ADD PUSH2 0x1A42 JUMP JUMPDEST SWAP2 POP POP SWAP3 SWAP2 POP POP JUMP JUMPDEST PUSH1 0x0 PUSH2 0x100 DUP3 ADD SWAP1 POP PUSH2 0x1AF5 PUSH1 0x0 DUP4 ADD DUP12 PUSH2 0x18FB JUMP JUMPDEST PUSH2 0x1B02 PUSH1 0x20 DUP4 ADD DUP11 PUSH2 0x190A JUMP JUMPDEST PUSH2 0x1B0F PUSH1 0x40 DUP4 ADD DUP10 PUSH2 0x18FB JUMP JUMPDEST PUSH2 0x1B1C PUSH1 0x60 DUP4 ADD DUP9 PUSH2 0x18FB JUMP JUMPDEST PUSH2 0x1B29 PUSH1 0x80 DUP4 ADD DUP8 PUSH2 0x190A JUMP JUMPDEST PUSH2 0x1B36 PUSH1 0xA0 DUP4 ADD DUP7 PUSH2 0x183C JUMP JUMPDEST PUSH2 0x1B43 PUSH1 0xC0 DUP4 ADD DUP6 PUSH2 0x183C JUMP JUMPDEST PUSH2 0x1B50 PUSH1 0xE0 DUP4 ADD DUP5 PUSH2 0x18FB JUMP JUMPDEST SWAP10 SWAP9 POP POP POP POP POP POP POP POP POP JUMP JUMPDEST PUSH1 0x0 PUSH1 0x20 DUP3 ADD SWAP1 POP PUSH2 0x1B72 PUSH1 0x0 DUP4 ADD DUP5 PUSH2 0x190A JUMP JUMPDEST SWAP3 SWAP2 POP POP JUMP JUMPDEST PUSH1 0x0 DUP1 PUSH1 0x0 PUSH1 0x60 DUP5 DUP7 SUB SLT ISZERO PUSH2 0x1B91 JUMPI PUSH2 0x1B90 PUSH2 0x17A6 JUMP JUMPDEST JUMPDEST PUSH1 0x0 PUSH2 0x1B9F DUP7 DUP3 DUP8 ADD PUSH2 0x1A42 JUMP JUMPDEST SWAP4 POP POP PUSH1 0x20 PUSH2 0x1BB0 DUP7 DUP3 DUP8 ADD PUSH2 0x1A42 JUMP JUMPDEST SWAP3 POP POP PUSH1 0x40 PUSH2 0x1BC1 DUP7 DUP3 DUP8 ADD PUSH2 0x18AF JUMP JUMPDEST SWAP2 POP POP SWAP3 POP SWAP3 POP SWAP3 JUMP JUMPDEST PUSH2 0x1BD4 DUP2 PUSH2 0x18F1 JUMP JUMPDEST DUP3 MSTORE POP POP JUMP JUMPDEST PUSH2 0x1BE3 DUP2 PUSH2 0x1886 JUMP JUMPDEST DUP3 MSTORE POP POP JUMP JUMPDEST PUSH2 0x1BF2 DUP2 PUSH2 0x1830 JUMP JUMPDEST DUP3 MSTORE POP POP JUMP JUMPDEST PUSH2 0x100 DUP3 ADD PUSH1 0x0 DUP3 ADD MLOAD PUSH2 0x1C0F PUSH1 0x0 DUP6 ADD DUP3 PUSH2 0x1BCB JUMP JUMPDEST POP PUSH1 0x20 DUP3 ADD MLOAD PUSH2 0x1C22 PUSH1 0x20 DUP6 ADD DUP3 PUSH2 0x1BDA JUMP JUMPDEST POP PUSH1 0x40 DUP3 ADD MLOAD PUSH2 0x1C35 PUSH1 0x40 DUP6 ADD DUP3 PUSH2 0x1BCB JUMP JUMPDEST POP PUSH1 0x60 DUP3 ADD MLOAD PUSH2 0x1C48 PUSH1 0x60 DUP6 ADD DUP3 PUSH2 0x1BCB JUMP JUMPDEST POP PUSH1 0x80 DUP3 ADD MLOAD PUSH2 0x1C5B PUSH1 0x80 DUP6 ADD DUP3 PUSH2 0x1BDA JUMP JUMPDEST POP PUSH1 0xA0 DUP3 ADD MLOAD PUSH2 0x1C6E PUSH1 0xA0 DUP6 ADD DUP3 PUSH2 0x1BE9 JUMP JUMPDEST POP PUSH1 0xC0 DUP3 ADD MLOAD PUSH2 0x1C81 PUSH1 0xC0 DUP6 ADD DUP3 PUSH2 0x1BE9 JUMP JUMPDEST POP PUSH1 0xE0 DUP3 ADD MLOAD PUSH2 0x1C94 PUSH1 0xE0 DUP6 ADD DUP3 PUSH2 0x1BCB JUMP JUMPDEST POP POP POP POP JUMP JUMPDEST PUSH1 0x0 PUSH2 0x100 DUP3 ADD SWAP1 POP PUSH2 0x1CB0 PUSH1 0x0 DUP4 ADD DUP5 PUSH2 0x1BF8 JUMP JUMPDEST SWAP3 SWAP2 POP POP JUMP JUMPDEST PUSH1 0x0 DUP2 SWAP1 POP SWAP2 SWAP1 POP JUMP JUMPDEST PUSH1 0x0 PUSH2 0x1CDB PUSH2 0x1CD6 PUSH2 0x1CD1 DUP5 PUSH2 0x1866 JUMP JUMPDEST PUSH2 0x1CB6 JUMP JUMPDEST PUSH2 0x1866 JUMP JUMPDEST SWAP1 POP SWAP2 SWAP1 POP JUMP JUMPDEST PUSH1 0x0 PUSH2 0x1CED DUP3 PUSH2 0x1CC0 JUMP JUMPDEST SWAP1 POP SWAP2 SWAP1 POP JUMP JUMPDEST PUSH1 0x0 PUSH2 0x1CFF DUP3 PUSH2 0x1CE2 JUMP JUMPDEST SWAP1 POP SWAP2 SWAP1 POP JUMP JUMPDEST PUSH2 0x1D0F DUP2 PUSH2 0x1CF4 JUMP JUMPDEST DUP3 MSTORE POP POP JUMP JUMPDEST PUSH1 0x0 PUSH1 0x20 DUP3 ADD SWAP1 POP PUSH2 0x1D2A PUSH1 0x0 DUP4 ADD DUP5 PUSH2 0x1D06 JUMP JUMPDEST SWAP3 SWAP2 POP POP JUMP JUMPDEST PUSH1 0x0 DUP3 DUP3 MSTORE PUSH1 0x20 DUP3 ADD SWAP1 POP SWAP3 SWAP2 POP POP JUMP JUMPDEST PUSH32 0x416363657373436F6E74726F6C3A2063616E206F6E6C792072656E6F756E6365 PUSH1 0x0 DUP3 ADD MSTORE PUSH32 0x20726F6C657320666F722073656C660000000000000000000000000000000000 PUSH1 0x20 DUP3 ADD MSTORE POP JUMP JUMPDEST PUSH1 0x0 PUSH2 0x1D9D PUSH1 0x2F DUP4 PUSH2 0x1D30 JUMP JUMPDEST SWAP2 POP PUSH2 0x1DA8 DUP3 PUSH2 0x1D41 JUMP JUMPDEST PUSH1 0x40 DUP3 ADD SWAP1 POP SWAP2 SWAP1 POP JUMP JUMPDEST PUSH1 0x0 PUSH1 0x20 DUP3 ADD SWAP1 POP DUP2 DUP2 SUB PUSH1 0x0 DUP4 ADD MSTORE PUSH2 0x1DCC DUP2 PUSH2 0x1D90 JUMP JUMPDEST SWAP1 POP SWAP2 SWAP1 POP JUMP JUMPDEST PUSH32 0x4E6F742061646D696E0000000000000000000000000000000000000000000000 PUSH1 0x0 DUP3 ADD MSTORE POP JUMP JUMPDEST PUSH1 0x0 PUSH2 0x1E09 PUSH1 0x9 DUP4 PUSH2 0x1D30 JUMP JUMPDEST SWAP2 POP PUSH2 0x1E14 DUP3 PUSH2 0x1DD3 JUMP JUMPDEST PUSH1 0x20 DUP3 ADD SWAP1 POP SWAP2 SWAP1 POP JUMP JUMPDEST PUSH1 0x0 PUSH1 0x20 DUP3 ADD SWAP1 POP DUP2 DUP2 SUB PUSH1 0x0 DUP4 ADD MSTORE PUSH2 0x1E38 DUP2 PUSH2 0x1DFC JUMP JUMPDEST SWAP1 POP SWAP2 SWAP1 POP JUMP JUMPDEST PUSH32 0x416C726561647920726567697374657265640000000000000000000000000000 PUSH1 0x0 DUP3 ADD MSTORE POP JUMP JUMPDEST PUSH1 0x0 PUSH2 0x1E75 PUSH1 0x12 DUP4 PUSH2 0x1D30 JUMP JUMPDEST SWAP2 POP PUSH2 0x1E80 DUP3 PUSH2 0x1E3F JUMP JUMPDEST PUSH1 0x20 DUP3 ADD SWAP1 POP SWAP2 SWAP1 POP JUMP JUMPDEST PUSH1 0x0 PUSH1 0x20 DUP3 ADD SWAP1 POP DUP2 DUP2 SUB PUSH1 0x0 DUP4 ADD MSTORE PUSH2 0x1EA4 DUP2 PUSH2 0x1E68 JUMP JUMPDEST SWAP1 POP SWAP2 SWAP1 POP JUMP JUMPDEST PUSH32 0x4E487B7100000000000000000000000000000000000000000000000000000000 PUSH1 0x0 MSTORE PUSH1 0x11 PUSH1 0x4 MSTORE PUSH1 0x24 PUSH1 0x0 REVERT JUMPDEST PUSH1 0x0 PUSH2 0x1EE5 DUP3 PUSH2 0x18F1 JUMP JUMPDEST SWAP2 POP PUSH32 0xFFFFFFFFFFFFFFFFFFFFFFFFFFFFFFFFFFFFFFFFFFFFFFFFFFFFFFFFFFFFFFFF DUP3 SUB PUSH2 0x1F17 JUMPI PUSH2 0x1F16 PUSH2 0x1EAB JUMP JUMPDEST JUMPDEST PUSH1 0x1 DUP3 ADD SWAP1 POP SWAP2 SWAP1 POP JUMP JUMPDEST PUSH1 0x0 PUSH1 0x60 DUP3 ADD SWAP1 POP PUSH2 0x1F37 PUSH1 0x0 DUP4 ADD DUP7 PUSH2 0x18FB JUMP JUMPDEST PUSH2 0x1F44 PUSH1 0x20 DUP4 ADD DUP6 PUSH2 0x18FB JUMP JUMPDEST PUSH2 0x1F51 PUSH1 0x40 DUP4 ADD DUP5 PUSH2 0x190A JUMP JUMPDEST SWAP5 SWAP4 POP POP POP POP JUMP JUMPDEST PUSH32 0x496E76616C696420726571756573740000000000000000000000000000000000 PUSH1 0x0 DUP3 ADD MSTORE POP JUMP JUMPDEST PUSH1 0x0 PUSH2 0x1F8F PUSH1 0xF DUP4 PUSH2 0x1D30 JUMP JUMPDEST SWAP2 POP PUSH2 0x1F9A DUP3 PUSH2 0x1F59 JUMP JUMPDEST PUSH1 0x20 DUP3 ADD SWAP1 POP SWAP2 SWAP1 POP JUMP JUMPDEST PUSH1 0x0 PUSH1 0x20 DUP3 ADD SWAP1 POP DUP2 DUP2 SUB PUSH1 0x0 DUP4 ADD MSTORE PUSH2 0x1FBE DUP2 PUSH2 0x1F82 JUMP JUMPDEST SWAP1 POP SWAP2 SWAP1 POP JUMP JUMPDEST PUSH32 0x416C726561647920657865637574656400000000000000000000000000000000 PUSH1 0x0 DUP3 ADD MSTORE POP JUMP JUMPDEST PUSH1 0x0 PUSH2 0x1FFB PUSH1 0x10 DUP4 PUSH2 0x1D30 JUMP JUMPDEST SWAP2 POP PUSH2 0x2006 DUP3 PUSH2 0x1FC5 JUMP JUMPDEST PUSH1 0x20 DUP3 ADD SWAP1 POP SWAP2 SWAP1 POP JUMP JUMPDEST PUSH1 0x0 PUSH1 0x20 DUP3 ADD SWAP1 POP DUP2 DUP2 SUB PUSH1 0x0 DUP4 ADD MSTORE PUSH2 0x202A DUP2 PUSH2 0x1FEE JUMP JUMPDEST SWAP1 POP SWAP2 SWAP1 POP JUMP JUMPDEST PUSH1 0x0 PUSH1 0x60 DUP3 ADD SWAP1 POP PUSH2 0x2046 PUSH1 0x0 DUP4 ADD DUP7 PUSH2 0x190A JUMP JUMPDEST PUSH2 0x2053 PUSH1 0x20 DUP4 ADD DUP6 PUSH2 0x18FB JUMP JUMPDEST PUSH2 0x2060 PUSH1 0x40 DUP4 ADD DUP5 PUSH2 0x18FB JUMP JUMPDEST SWAP5 SWAP4 POP POP POP POP JUMP JUMPDEST PUSH1 0x0 DUP2 MLOAD SWAP1 POP SWAP2 SWAP1 POP JUMP JUMPDEST PUSH1 0x0 DUP3 DUP3 MSTORE PUSH1 0x20 DUP3 ADD SWAP1 POP SWAP3 SWAP2 POP POP JUMP JUMPDEST PUSH1 0x0 JUMPDEST DUP4 DUP2 LT ISZERO PUSH2 0x20A2 JUMPI DUP1 DUP3 ADD MLOAD DUP2 DUP5 ADD MSTORE PUSH1 0x20 DUP2 ADD SWAP1 POP PUSH2 0x2087 JUMP JUMPDEST PUSH1 0x0 DUP5 DUP5 ADD MSTORE POP POP POP POP JUMP JUMPDEST PUSH1 0x0 PUSH1 0x1F NOT PUSH1 0x1F DUP4 ADD AND SWAP1 POP SWAP2 SWAP1 POP JUMP JUMPDEST PUSH1 0x0 PUSH2 0x20CA DUP3 PUSH2 0x2068 JUMP JUMPDEST PUSH2 0x20D4 DUP2 DUP6 PUSH2 0x2073 JUMP JUMPDEST SWAP4 POP PUSH2 0x20E4 DUP2 DUP6 PUSH1 0x20 DUP7 ADD PUSH2 0x2084 JUMP JUMPDEST PUSH2 0x20ED DUP2 PUSH2 0x20AE JUMP JUMPDEST DUP5 ADD SWAP2 POP POP SWAP3 SWAP2 POP POP JUMP JUMPDEST PUSH1 0x0 PUSH1 0x40 DUP3 ADD SWAP1 POP DUP2 DUP2 SUB PUSH1 0x0 DUP4 ADD MSTORE PUSH2 0x2112 DUP2 DUP6 PUSH2 0x20BF JUMP JUMPDEST SWAP1 POP PUSH2 0x2121 PUSH1 0x20 DUP4 ADD DUP5 PUSH2 0x18FB JUMP JUMPDEST SWAP4 SWAP3 POP POP POP JUMP JUMPDEST PUSH1 0x0 DUP2 SWAP1 POP SWAP3 SWAP2 POP POP JUMP JUMPDEST PUSH32 0x416363657373436F6E74726F6C3A206163636F756E7420000000000000000000 PUSH1 0x0 DUP3 ADD MSTORE POP JUMP JUMPDEST PUSH1 0x0 PUSH2 0x2169 PUSH1 0x17 DUP4 PUSH2 0x2128 JUMP JUMPDEST SWAP2 POP PUSH2 0x2174 DUP3 PUSH2 0x2133 JUMP JUMPDEST PUSH1 0x17 DUP3 ADD SWAP1 POP SWAP2 SWAP1 POP JUMP JUMPDEST PUSH1 0x0 DUP2 MLOAD SWAP1 POP SWAP2 SWAP1 POP JUMP JUMPDEST PUSH1 0x0 PUSH2 0x2195 DUP3 PUSH2 0x217F JUMP JUMPDEST PUSH2 0x219F DUP2 DUP6 PUSH2 0x2128 JUMP JUMPDEST SWAP4 POP PUSH2 0x21AF DUP2 DUP6 PUSH1 0x20 DUP7 ADD PUSH2 0x2084 JUMP JUMPDEST DUP1 DUP5 ADD SWAP2 POP POP SWAP3 SWAP2 POP POP JUMP JUMPDEST PUSH32 0x206973206D697373696E6720726F6C6520000000000000000000000000000000 PUSH1 0x0 DUP3 ADD MSTORE POP JUMP JUMPDEST PUSH1 0x0 PUSH2 0x21F1 PUSH1 0x11 DUP4 PUSH2 0x2128 JUMP JUMPDEST SWAP2 POP PUSH2 0x21FC DUP3 PUSH2 0x21BB JUMP JUMPDEST PUSH1 0x11 DUP3 ADD SWAP1 POP SWAP2 SWAP1 POP JUMP JUMPDEST PUSH1 0x0 PUSH2 0x2212 DUP3 PUSH2 0x215C JUMP JUMPDEST SWAP2 POP PUSH2 0x221E DUP3 DUP6 PUSH2 0x218A JUMP JUMPDEST SWAP2 POP PUSH2 0x2229 DUP3 PUSH2 0x21E4 JUMP JUMPDEST SWAP2 POP PUSH2 0x2235 DUP3 DUP5 PUSH2 0x218A JUMP JUMPDEST SWAP2 POP DUP2 SWAP1 POP SWAP4 SWAP3 POP POP POP JUMP JUMPDEST PUSH1 0x0 PUSH2 0x224C DUP3 PUSH2 0x217F JUMP JUMPDEST PUSH2 0x2256 DUP2 DUP6 PUSH2 0x1D30 JUMP JUMPDEST SWAP4 POP PUSH2 0x2266 DUP2 DUP6 PUSH1 0x20 DUP7 ADD PUSH2 0x2084 JUMP JUMPDEST PUSH2 0x226F DUP2 PUSH2 0x20AE JUMP JUMPDEST DUP5 ADD SWAP2 POP POP SWAP3 SWAP2 POP POP JUMP JUMPDEST PUSH1 0x0 PUSH1 0x20 DUP3 ADD SWAP1 POP DUP2 DUP2 SUB PUSH1 0x0 DUP4 ADD MSTORE PUSH2 0x2294 DUP2 DUP5 PUSH2 0x2241 JUMP JUMPDEST SWAP1 POP SWAP3 SWAP2 POP POP JUMP JUMPDEST PUSH1 0x0 PUSH2 0x22A7 DUP3 PUSH2 0x18F1 JUMP JUMPDEST SWAP2 POP PUSH2 0x22B2 DUP4 PUSH2 0x18F1 JUMP JUMPDEST SWAP3 POP DUP3 DUP3 MUL PUSH2 0x22C0 DUP2 PUSH2 0x18F1 JUMP JUMPDEST SWAP2 POP DUP3 DUP3 DIV DUP5 EQ DUP4 ISZERO OR PUSH2 0x22D7 JUMPI PUSH2 0x22D6 PUSH2 0x1EAB JUMP JUMPDEST JUMPDEST POP SWAP3 SWAP2 POP POP JUMP JUMPDEST PUSH1 0x0 PUSH2 0x22E9 DUP3 PUSH2 0x18F1 JUMP JUMPDEST SWAP2 POP PUSH2 0x22F4 DUP4 PUSH2 0x18F1 JUMP JUMPDEST SWAP3 POP DUP3 DUP3 ADD SWAP1 POP DUP1 DUP3 GT ISZERO PUSH2 0x230C JUMPI PUSH2 0x230B PUSH2 0x1EAB JUMP JUMPDEST JUMPDEST SWAP3 SWAP2 POP POP JUMP JUMPDEST PUSH32 0x4E487B7100000000000000000000000000000000000000000000000000000000 PUSH1 0x0 MSTORE PUSH1 0x41 PUSH1 0x4 MSTORE PUSH1 0x24 PUSH1 0x0 REVERT JUMPDEST PUSH32 0x4E487B7100000000000000000000000000000000000000000000000000000000 PUSH1 0x0 MSTORE PUSH1 0x32 PUSH1 0x4 MSTORE PUSH1 0x24 PUSH1 0x0 REVERT JUMPDEST PUSH1 0x0 PUSH2 0x237B DUP3 PUSH2 0x18F1 JUMP JUMPDEST SWAP2 POP PUSH1 0x0 DUP3 SUB PUSH2 0x238E JUMPI PUSH2 0x238D PUSH2 0x1EAB JUMP JUMPDEST JUMPDEST PUSH1 0x1 DUP3 SUB SWAP1 POP SWAP2 SWAP1 POP JUMP JUMPDEST PUSH32 0x537472696E67733A20686578206C656E67746820696E73756666696369656E74 PUSH1 0x0 DUP3 ADD MSTORE POP JUMP JUMPDEST PUSH1 0x0 PUSH2 0x23CF PUSH1 0x20 DUP4 PUSH2 0x1D30 JUMP JUMPDEST SWAP2 POP PUSH2 0x23DA DUP3 PUSH2 0x2399 JUMP JUMPDEST PUSH1 0x20 DUP3 ADD SWAP1 POP SWAP2 SWAP1 POP JUMP JUMPDEST PUSH1 0x0 PUSH1 0x20 DUP3 ADD SWAP1 POP DUP2 DUP2 SUB PUSH1 0x0 DUP4 ADD MSTORE PUSH2 0x23FE DUP2 PUSH2 0x23C2 JUMP JUMPDEST SWAP1 POP SWAP2 SWAP1 POP JUMP INVALID LOG2 PUSH5 0x6970667358 0x22 SLT KECCAK256 0xCB 0xDE SAR SWAP14 MSTORE8 0x22 DUP9 JUMPI 0xE 0x2B 0x5E 0xF 0xFC DUP11 PUSH12 0xA82528006057DA9D30FD55D9 PUSH1 0xF5 0xC7 SWAP5 SWAP16 PUSH5 0x736F6C6343 STOP ADDMOD SGT STOP CALLER "},"methodIdentifiers":{"ADMIN_ROLE()":"75b238fc","CONTRIBUTOR_ROLE()":"eafb79e2","DEFAULT_ADMIN_ROLE()":"a217fddf","contributors(address)":"1f6d4942","crossChainPayout()":"ee77418d","forwardRequestToPayout(uint256)":"f0daf8c9","getRequest(uint256)":"c58343ef","getRoleAdmin(bytes32)":"248a9ca3","grantRole(bytes32,address)":"2f2ff15d","hasRole(bytes32,address)":"91d14854","nextContributorId()":"84ac761d","nextRequestId()":"6a84a985","registerContributor(address,uint256)":"472f0bcc","renounceRole(bytes32,address)":"36568abe","requestPayment(uint256,uint256,address)":"beb417e9","requests(uint256)":"81d12c58","revokeRole(bytes32,address)":"d547741f","setCrossChainPayout(address)":"7f4175f8","setTreasuryToken(address)":"e19cb55b","supportsInterface(bytes4)":"01ffc9a7","treasuryToken()":"b2ce514b"}}}}}