{
  "_format": "hh-sol-artifact-1",
  "contractName": "MultiSigWallet",
  "sourceName": "contracts/MultiSigWallet.sol",
  "abi": [
    {
      "inputs": [
        {
          "internalType": "address[]",
          "name": "_owners",
          "type": "address[]"
        },
        {
          "internalType": "uint256",
          "name": "_threshold",
          "type": "uint256"
        }
      ],
      "stateMutability": "nonpayable",
      "type": "constructor"
    },
    {
      "anonymous": false,
      "inputs": [
        {
          "indexed": true,
          "internalType": "address",
          "name": "to",
          "type": "address"
        },
        {
          "indexed": false,
          "internalType": "uint256",
          "name": "value",
          "type": "uint256"
        },
        {
          "indexed": false,
          "internalType": "bytes",
          "name": "data",
          "type": "bytes"
        }
      ],
      "name": "ExecuteTransaction",
      "type": "event"
    },
    {
      "inputs": [
        {
          "internalType": "address",
          "name": "to",
          "type": "address"
        },
        {
          "internalType": "uint256",
          "name": "value",
          "type": "uint256"
        },
        {
          "internalType": "bytes",
          "name": "data",
          "type": "bytes"
        }
      ],
      "name": "execute",
      "outputs": [],
      "stateMutability": "nonpayable",
      "type": "function"
    },
    {
      "inputs": [
        {
          "internalType": "address",
          "name": "",
          "type": "address"
        }
      ],
      "name": "isOwner",
      "outputs": [
        {
          "internalType": "bool",
          "name": "",
          "type": "bool"
        }
      ],
      "stateMutability": "view",
      "type": "function"
    },
    {
      "inputs": [
        {
          "internalType": "uint256",
          "name": "",
          "type": "uint256"
        }
      ],
      "name": "owners",
      "outputs": [
        {
          "internalType": "address",
          "name": "",
          "type": "address"
        }
      ],
      "stateMutability": "view",
      "type": "function"
    },
    {
      "inputs": [],
      "name": "threshold",
      "outputs": [
        {
          "internalType": "uint256",
          "name": "",
          "type": "uint256"
        }
      ],
      "stateMutability": "view",
      "type": "function"
    },
    {
      "stateMutability": "payable",
      "type": "receive"
    }
  ],
  "bytecode": "0x60806040523480156200001157600080fd5b5060405162000d3138038062000d31833981810160405281019062000037919062000423565b80825110158015620000495750600081115b6200008b576040517f08c379a00000000000000000000000000000000000000000000000000000000081526004016200008290620004ea565b60405180910390fd5b8160019080519060200190620000a39291906200014c565b508060008190555060005b82518110156200014357600160026000858481518110620000d457620000d36200050c565b5b602002602001015173ffffffffffffffffffffffffffffffffffffffff1673ffffffffffffffffffffffffffffffffffffffff16815260200190815260200160002060006101000a81548160ff02191690831515021790555080806200013a906200056a565b915050620000ae565b505050620005b7565b828054828255906000526020600020908101928215620001c8579160200282015b82811115620001c75782518260006101000a81548173ffffffffffffffffffffffffffffffffffffffff021916908373ffffffffffffffffffffffffffffffffffffffff160217905550916020019190600101906200016d565b5b509050620001d79190620001db565b5090565b5b80821115620001f6576000816000905550600101620001dc565b5090565b6000604051905090565b600080fd5b600080fd5b600080fd5b6000601f19601f8301169050919050565b7f4e487b7100000000000000000000000000000000000000000000000000000000600052604160045260246000fd5b6200025e8262000213565b810181811067ffffffffffffffff8211171562000280576200027f62000224565b5b80604052505050565b600062000295620001fa565b9050620002a3828262000253565b919050565b600067ffffffffffffffff821115620002c657620002c562000224565b5b602082029050602081019050919050565b600080fd5b600073ffffffffffffffffffffffffffffffffffffffff82169050919050565b60006200030982620002dc565b9050919050565b6200031b81620002fc565b81146200032757600080fd5b50565b6000815190506200033b8162000310565b92915050565b6000620003586200035284620002a8565b62000289565b905080838252602082019050602084028301858111156200037e576200037d620002d7565b5b835b81811015620003ab57806200039688826200032a565b84526020840193505060208101905062000380565b5050509392505050565b600082601f830112620003cd57620003cc6200020e565b5b8151620003df84826020860162000341565b91505092915050565b6000819050919050565b620003fd81620003e8565b81146200040957600080fd5b50565b6000815190506200041d81620003f2565b92915050565b600080604083850312156200043d576200043c62000204565b5b600083015167ffffffffffffffff8111156200045e576200045d62000209565b5b6200046c85828601620003b5565b92505060206200047f858286016200040c565b9150509250929050565b600082825260208201905092915050565b7f496e76616c6964206f776e6572732f7468726573686f6c640000000000000000600082015250565b6000620004d260188362000489565b9150620004df826200049a565b602082019050919050565b600060208201905081810360008301526200050581620004c3565b9050919050565b7f4e487b7100000000000000000000000000000000000000000000000000000000600052603260045260246000fd5b7f4e487b7100000000000000000000000000000000000000000000000000000000600052601160045260246000fd5b60006200057782620003e8565b91507fffffffffffffffffffffffffffffffffffffffffffffffffffffffffffffffff8203620005ac57620005ab6200053b565b5b600182019050919050565b61076a80620005c76000396000f3fe6080604052600436106100435760003560e01c8063025e7c271461004f5780632f54bf6e1461008c57806342cde4e8146100c9578063b61d27f6146100f45761004a565b3661004a57005b600080fd5b34801561005b57600080fd5b5061007660048036038101906100719190610357565b61011d565b60405161008391906103c5565b60405180910390f35b34801561009857600080fd5b506100b360048036038101906100ae919061040c565b61015c565b6040516100c09190610454565b60405180910390f35b3480156100d557600080fd5b506100de61017c565b6040516100eb919061047e565b60405180910390f35b34801561010057600080fd5b5061011b600480360381019061011691906104fe565b610182565b005b6001818154811061012d57600080fd5b906000526020600020016000915054906101000a900473ffffffffffffffffffffffffffffffffffffffff1681565b60026020528060005260406000206000915054906101000a900460ff1681565b60005481565b600260003373ffffffffffffffffffffffffffffffffffffffff1673ffffffffffffffffffffffffffffffffffffffff16815260200190815260200160002060009054906101000a900460ff1661020e576040517f08c379a0000000000000000000000000000000000000000000000000000000008152600401610205906105cf565b60405180910390fd5b60008473ffffffffffffffffffffffffffffffffffffffff1684848460405161023892919061062e565b60006040518083038185875af1925050503d8060008114610275576040519150601f19603f3d011682016040523d82523d6000602084013e61027a565b606091505b50509050806102be576040517f08c379a00000000000000000000000000000000000000000000000000000000081526004016102b590610693565b60405180910390fd5b8473ffffffffffffffffffffffffffffffffffffffff167f54f664f7029556fc12130091e98f12238e6869052f48ce9db6f6c98a009d8fc185858560405161030893929190610702565b60405180910390a25050505050565b600080fd5b600080fd5b6000819050919050565b61033481610321565b811461033f57600080fd5b50565b6000813590506103518161032b565b92915050565b60006020828403121561036d5761036c610317565b5b600061037b84828501610342565b91505092915050565b600073ffffffffffffffffffffffffffffffffffffffff82169050919050565b60006103af82610384565b9050919050565b6103bf816103a4565b82525050565b60006020820190506103da60008301846103b6565b92915050565b6103e9816103a4565b81146103f457600080fd5b50565b600081359050610406816103e0565b92915050565b60006020828403121561042257610421610317565b5b6000610430848285016103f7565b91505092915050565b60008115159050919050565b61044e81610439565b82525050565b60006020820190506104696000830184610445565b92915050565b61047881610321565b82525050565b6000602082019050610493600083018461046f565b92915050565b600080fd5b600080fd5b600080fd5b60008083601f8401126104be576104bd610499565b5b8235905067ffffffffffffffff8111156104db576104da61049e565b5b6020830191508360018202830111156104f7576104f66104a3565b5b9250929050565b6000806000806060858703121561051857610517610317565b5b6000610526878288016103f7565b945050602061053787828801610342565b935050604085013567ffffffffffffffff8111156105585761055761031c565b5b610564878288016104a8565b925092505092959194509250565b600082825260208201905092915050565b7f4e6f74206f776e65720000000000000000000000000000000000000000000000600082015250565b60006105b9600983610572565b91506105c482610583565b602082019050919050565b600060208201905081810360008301526105e8816105ac565b9050919050565b600081905092915050565b82818337600083830152505050565b600061061583856105ef565b93506106228385846105fa565b82840190509392505050565b600061063b828486610609565b91508190509392505050565b7f7478206661696c65640000000000000000000000000000000000000000000000600082015250565b600061067d600983610572565b915061068882610647565b602082019050919050565b600060208201905081810360008301526106ac81610670565b9050919050565b600082825260208201905092915050565b6000601f19601f8301169050919050565b60006106e183856106b3565b93506106ee8385846105fa565b6106f7836106c4565b840190509392505050565b6000604082019050610717600083018661046f565b818103602083015261072a8184866106d5565b905094935050505056fea2646970667358221220384f0330495212611bc2d399ff4d59665fc7539d3e1bf2a9242a780e4006bcff64736f6c63430008130033",
  "linkReferences": {},
  "deployedLinkReferences": {}
}