{
  "_format": "hh-sol-artifact-1",
  "contractName": "PayrollVault",
  "sourceName": "contracts/PayrollVault.sol",
  "abi": [
    {
      "inputs": [
        {
          "internalType": "address",
          "name": "admin",
          "type": "address"
        },
        {
          "internalType": "address",
          "name": "_crossChainPayout",
          "type": "address"
        }
      ],
      "stateMutability": "nonpayable",
      "type": "constructor"
    },
    {
      "anonymous": false,
      "inputs": [
        {
          "indexed": true,
          "internalType": "address",
          "name": "contributor",
          "type": "address"
        },
        {
          "indexed": false,
          "internalType": "uint256",
          "name": "id",
          "type": "uint256"
        },
        {
          "indexed": false,
          "internalType": "uint256",
          "name": "preferredChainId",
          "type": "uint256"
        },
        {
          "indexed": false,
          "internalType": "address",
          "name": "wallet",
          "type": "address"
        }
      ],
      "name": "ContributorRegistered",
      "type": "event"
    },
    {
      "anonymous": false,
      "inputs": [
        {
          "indexed": true,
          "internalType": "uint256",
          "name": "requestId",
          "type": "uint256"
        },
        {
          "indexed": true,
          "internalType": "address",
          "name": "requester",
          "type": "address"
        },
        {
          "indexed": false,
          "internalType": "uint256",
          "name": "amount",
          "type": "uint256"
        },
        {
          "indexed": false,
          "internalType": "uint256",
          "name": "targetChainId",
          "type": "uint256"
        },
        {
          "indexed": false,
          "internalType": "address",
          "name": "targetWallet",
          "type": "address"
        }
      ],
      "name": "PaymentRequested",
      "type": "event"
    },
    {
      "anonymous": false,
      "inputs": [
        {
          "indexed": true,
          "internalType": "bytes32",
          "name": "role",
          "type": "bytes32"
        },
        {
          "indexed": true,
          "internalType": "bytes32",
          "name": "previousAdminRole",
          "type": "bytes32"
        },
        {
          "indexed": true,
          "internalType": "bytes32",
          "name": "newAdminRole",
          "type": "bytes32"
        }
      ],
      "name": "RoleAdminChanged",
      "type": "event"
    },
    {
      "anonymous": false,
      "inputs": [
        {
          "indexed": true,
          "internalType": "bytes32",
          "name": "role",
          "type": "bytes32"
        },
        {
          "indexed": true,
          "internalType": "address",
          "name": "account",
          "type": "address"
        },
        {
          "indexed": true,
          "internalType": "address",
          "name": "sender",
          "type": "address"
        }
      ],
      "name": "RoleGranted",
      "type": "event"
    },
    {
      "anonymous": false,
      "inputs": [
        {
          "indexed": true,
          "internalType": "bytes32",
          "name": "role",
          "type": "bytes32"
        },
        {
          "indexed": true,
          "internalType": "address",
          "name": "account",
          "type": "address"
        },
        {
          "indexed": true,
          "internalType": "address",
          "name": "sender",
          "type": "address"
        }
      ],
      "name": "RoleRevoked",
      "type": "event"
    },
    {
      "inputs": [],
      "name": "ADMIN_ROLE",
      "outputs": [
        {
          "internalType": "bytes32",
          "name": "",
          "type": "bytes32"
        }
      ],
      "stateMutability": "view",
      "type": "function"
    },
    {
      "inputs": [],
      "name": "CONTRIBUTOR_ROLE",
      "outputs": [
        {
          "internalType": "bytes32",
          "name": "",
          "type": "bytes32"
        }
      ],
      "stateMutability": "view",
      "type": "function"
    },
    {
      "inputs": [],
      "name": "DEFAULT_ADMIN_ROLE",
      "outputs": [
        {
          "internalType": "bytes32",
          "name": "",
          "type": "bytes32"
        }
      ],
      "stateMutability": "view",
      "type": "function"
    },
    {
      "inputs": [
        {
          "internalType": "address",
          "name": "",
          "type": "address"
        }
      ],
      "name": "contributors",
      "outputs": [
        {
          "internalType": "uint256",
          "name": "id",
          "type": "uint256"
        },
        {
          "internalType": "address",
          "name": "wallet",
          "type": "address"
        },
        {
          "internalType": "uint256",
          "name": "preferredChainId",
          "type": "uint256"
        },
        {
          "internalType": "bool",
          "name": "exists",
          "type": "bool"
        }
      ],
      "stateMutability": "view",
      "type": "function"
    },
    {
      "inputs": [],
      "name": "crossChainPayout",
      "outputs": [
        {
          "internalType": "contract ICrossChainPayout",
          "name": "",
          "type": "address"
        }
      ],
      "stateMutability": "view",
      "type": "function"
    },
    {
      "inputs": [
        {
          "internalType": "uint256",
          "name": "requestId",
          "type": "uint256"
        }
      ],
      "name": "executeFromMultisig",
      "outputs": [],
      "stateMutability": "payable",
      "type": "function"
    },
    {
      "inputs": [
        {
          "internalType": "uint256",
          "name": "requestId",
          "type": "uint256"
        }
      ],
      "name": "forwardRequestToPayout",
      "outputs": [],
      "stateMutability": "payable",
      "type": "function"
    },
    {
      "inputs": [
        {
          "internalType": "uint256",
          "name": "id",
          "type": "uint256"
        }
      ],
      "name": "getRequest",
      "outputs": [
        {
          "components": [
            {
              "internalType": "uint256",
              "name": "id",
              "type": "uint256"
            },
            {
              "internalType": "address",
              "name": "requester",
              "type": "address"
            },
            {
              "internalType": "uint256",
              "name": "amount",
              "type": "uint256"
            },
            {
              "internalType": "uint256",
              "name": "targetChainId",
              "type": "uint256"
            },
            {
              "internalType": "address",
              "name": "targetWallet",
              "type": "address"
            },
            {
              "internalType": "bool",
              "name": "approved",
              "type": "bool"
            },
            {
              "internalType": "bool",
              "name": "executed",
              "type": "bool"
            },
            {
              "internalType": "uint256",
              "name": "timestamp",
              "type": "uint256"
            }
          ],
          "internalType": "struct PayrollVault.PaymentRequest",
          "name": "",
          "type": "tuple"
        }
      ],
      "stateMutability": "view",
      "type": "function"
    },
    {
      "inputs": [
        {
          "internalType": "bytes32",
          "name": "role",
          "type": "bytes32"
        }
      ],
      "name": "getRoleAdmin",
      "outputs": [
        {
          "internalType": "bytes32",
          "name": "",
          "type": "bytes32"
        }
      ],
      "stateMutability": "view",
      "type": "function"
    },
    {
      "inputs": [
        {
          "internalType": "bytes32",
          "name": "role",
          "type": "bytes32"
        },
        {
          "internalType": "address",
          "name": "account",
          "type": "address"
        }
      ],
      "name": "grantRole",
      "outputs": [],
      "stateMutability": "nonpayable",
      "type": "function"
    },
    {
      "inputs": [
        {
          "internalType": "bytes32",
          "name": "role",
          "type": "bytes32"
        },
        {
          "internalType": "address",
          "name": "account",
          "type": "address"
        }
      ],
      "name": "hasRole",
      "outputs": [
        {
          "internalType": "bool",
          "name": "",
          "type": "bool"
        }
      ],
      "stateMutability": "view",
      "type": "function"
    },
    {
      "inputs": [],
      "name": "highValueThreshold",
      "outputs": [
        {
          "internalType": "uint256",
          "name": "",
          "type": "uint256"
        }
      ],
      "stateMutability": "view",
      "type": "function"
    },
    {
      "inputs": [],
      "name": "multisig",
      "outputs": [
        {
          "internalType": "address",
          "name": "",
          "type": "address"
        }
      ],
      "stateMutability": "view",
      "type": "function"
    },
    {
      "inputs": [],
      "name": "nextContributorId",
      "outputs": [
        {
          "internalType": "uint256",
          "name": "",
          "type": "uint256"
        }
      ],
      "stateMutability": "view",
      "type": "function"
    },
    {
      "inputs": [],
      "name": "nextRequestId",
      "outputs": [
        {
          "internalType": "uint256",
          "name": "",
          "type": "uint256"
        }
      ],
      "stateMutability": "view",
      "type": "function"
    },
    {
      "inputs": [
        {
          "internalType": "address",
          "name": "wallet",
          "type": "address"
        },
        {
          "internalType": "uint256",
          "name": "preferredChainId",
          "type": "uint256"
        }
      ],
      "name": "registerContributor",
      "outputs": [],
      "stateMutability": "nonpayable",
      "type": "function"
    },
    {
      "inputs": [
        {
          "internalType": "bytes32",
          "name": "role",
          "type": "bytes32"
        },
        {
          "internalType": "address",
          "name": "account",
          "type": "address"
        }
      ],
      "name": "renounceRole",
      "outputs": [],
      "stateMutability": "nonpayable",
      "type": "function"
    },
    {
      "inputs": [
        {
          "internalType": "uint256",
          "name": "amount",
          "type": "uint256"
        },
        {
          "internalType": "uint256",
          "name": "targetChainId",
          "type": "uint256"
        },
        {
          "internalType": "address",
          "name": "targetWallet",
          "type": "address"
        }
      ],
      "name": "requestPayment",
      "outputs": [
        {
          "internalType": "uint256",
          "name": "",
          "type": "uint256"
        }
      ],
      "stateMutability": "nonpayable",
      "type": "function"
    },
    {
      "inputs": [
        {
          "internalType": "uint256",
          "name": "",
          "type": "uint256"
        }
      ],
      "name": "requests",
      "outputs": [
        {
          "internalType": "uint256",
          "name": "id",
          "type": "uint256"
        },
        {
          "internalType": "address",
          "name": "requester",
          "type": "address"
        },
        {
          "internalType": "uint256",
          "name": "amount",
          "type": "uint256"
        },
        {
          "internalType": "uint256",
          "name": "targetChainId",
          "type": "uint256"
        },
        {
          "internalType": "address",
          "name": "targetWallet",
          "type": "address"
        },
        {
          "internalType": "bool",
          "name": "approved",
          "type": "bool"
        },
        {
          "internalType": "bool",
          "name": "executed",
          "type": "bool"
        },
        {
          "internalType": "uint256",
          "name": "timestamp",
          "type": "uint256"
        }
      ],
      "stateMutability": "view",
      "type": "function"
    },
    {
      "inputs": [
        {
          "internalType": "bytes32",
          "name": "role",
          "type": "bytes32"
        },
        {
          "internalType": "address",
          "name": "account",
          "type": "address"
        }
      ],
      "name": "revokeRole",
      "outputs": [],
      "stateMutability": "nonpayable",
      "type": "function"
    },
    {
      "inputs": [
        {
          "internalType": "address",
          "name": "_crossChainPayout",
          "type": "address"
        }
      ],
      "name": "setCrossChainPayout",
      "outputs": [],
      "stateMutability": "nonpayable",
      "type": "function"
    },
    {
      "inputs": [
        {
          "internalType": "address",
          "name": "_multisig",
          "type": "address"
        },
        {
          "internalType": "uint256",
          "name": "_threshold",
          "type": "uint256"
        }
      ],
      "name": "setMultisig",
      "outputs": [],
      "stateMutability": "nonpayable",
      "type": "function"
    },
    {
      "inputs": [
        {
          "internalType": "address",
          "name": "token",
          "type": "address"
        }
      ],
      "name": "setTreasuryToken",
      "outputs": [],
      "stateMutability": "nonpayable",
      "type": "function"
    },
    {
      "inputs": [
        {
          "internalType": "bytes4",
          "name": "interfaceId",
          "type": "bytes4"
        }
      ],
      "name": "supportsInterface",
      "outputs": [
        {
          "internalType": "bool",
          "name": "",
          "type": "bool"
        }
      ],
      "stateMutability": "view",
      "type": "function"
    },
    {
      "inputs": [],
      "name": "treasuryToken",
      "outputs": [
        {
          "internalType": "address",
          "name": "",
          "type": "address"
        }
      ],
      "stateMutability": "view",
      "type": "function"
    },
    {
      "stateMutability": "payable",
      "type": "receive"
    }
  ],
  "bytecode": "0x60806040523480156200001157600080fd5b5060405162002cdc38038062002cdc8339818101604052810190620000379190620002aa565b6200004c6000801b83620000c760201b60201c565b6200007e7fa49807205ce4d355092ef5a8a18f56e8913cf4a201fbe287825b095693c2177583620000c760201b60201c565b80600560006101000a81548173ffffffffffffffffffffffffffffffffffffffff021916908373ffffffffffffffffffffffffffffffffffffffff1602179055505050620002f1565b620000d98282620000dd60201b60201c565b5050565b620000ef8282620001ce60201b60201c565b620001ca57600160008084815260200190815260200160002060000160008373ffffffffffffffffffffffffffffffffffffffff1673ffffffffffffffffffffffffffffffffffffffff16815260200190815260200160002060006101000a81548160ff0219169083151502179055506200016f6200023860201b60201c565b73ffffffffffffffffffffffffffffffffffffffff168173ffffffffffffffffffffffffffffffffffffffff16837f2f8788117e7eff1d82e926ec794901d17c78024a50270940304540a733656f0d60405160405180910390a45b5050565b600080600084815260200190815260200160002060000160008373ffffffffffffffffffffffffffffffffffffffff1673ffffffffffffffffffffffffffffffffffffffff16815260200190815260200160002060009054906101000a900460ff16905092915050565b600033905090565b600080fd5b600073ffffffffffffffffffffffffffffffffffffffff82169050919050565b6000620002728262000245565b9050919050565b620002848162000265565b81146200029057600080fd5b50565b600081519050620002a48162000279565b92915050565b60008060408385031215620002c457620002c362000240565b5b6000620002d48582860162000293565b9250506020620002e78582860162000293565b9150509250929050565b6129db80620003016000396000f3fe60806040526004361061016a5760003560e01c806384ac761d116100d1578063c58343ef1161008a578063eafb79e211610064578063eafb79e21461056a578063ee77418d14610595578063f0daf8c9146105c0578063fcdda83d146105dc57610171565b8063c58343ef146104db578063d547741f14610518578063e19cb55b1461054157610171565b806384ac761d146103c457806391d14854146103ef578063a217fddf1461042c578063a9ef22eb14610457578063b2ce514b14610473578063beb417e91461049e57610171565b8063472f0bcc11610123578063472f0bcc146102ad5780634783c35b146102d65780636a84a9851461030157806375b238fc1461032c5780637f4175f81461035757806381d12c581461038057610171565b806301ffc9a714610176578063026a3ff9146101b35780631f6d4942146101de578063248a9ca31461021e5780632f2ff15d1461025b57806336568abe1461028457610171565b3661017157005b600080fd5b34801561018257600080fd5b5061019d60048036038101906101989190611ca5565b610605565b6040516101aa9190611ced565b60405180910390f35b3480156101bf57600080fd5b506101c861067f565b6040516101d59190611d21565b60405180910390f35b3480156101ea57600080fd5b5061020560048036038101906102009190611d9a565b610685565b6040516102159493929190611dd6565b60405180910390f35b34801561022a57600080fd5b5061024560048036038101906102409190611e51565b6106e2565b6040516102529190611e8d565b60405180910390f35b34801561026757600080fd5b50610282600480360381019061027d9190611ea8565b610701565b005b34801561029057600080fd5b506102ab60048036038101906102a69190611ea8565b610722565b005b3480156102b957600080fd5b506102d460048036038101906102cf9190611f14565b6107a5565b005b3480156102e257600080fd5b506102eb610a2b565b6040516102f89190611f54565b60405180910390f35b34801561030d57600080fd5b50610316610a51565b6040516103239190611d21565b60405180910390f35b34801561033857600080fd5b50610341610a57565b60405161034e9190611e8d565b60405180910390f35b34801561036357600080fd5b5061037e60048036038101906103799190611d9a565b610a7b565b005b34801561038c57600080fd5b506103a760048036038101906103a29190611f6f565b610b28565b6040516103bb989796959493929190611f9c565b60405180910390f35b3480156103d057600080fd5b506103d9610bca565b6040516103e69190611d21565b60405180910390f35b3480156103fb57600080fd5b5061041660048036038101906104119190611ea8565b610bd0565b6040516104239190611ced565b60405180910390f35b34801561043857600080fd5b50610441610c3a565b60405161044e9190611e8d565b60405180910390f35b610471600480360381019061046c9190611f6f565b610c41565b005b34801561047f57600080fd5b50610488610e86565b6040516104959190611f54565b60405180910390f35b3480156104aa57600080fd5b506104c560048036038101906104c0919061201a565b610eac565b6040516104d29190611d21565b60405180910390f35b3480156104e757600080fd5b5061050260048036038101906104fd9190611f6f565b6110c8565b60405161050f919061213c565b60405180910390f35b34801561052457600080fd5b5061053f600480360381019061053a9190611ea8565b611200565b005b34801561054d57600080fd5b5061056860048036038101906105639190611d9a565b611221565b005b34801561057657600080fd5b5061057f6112ce565b60405161058c9190611e8d565b60405180910390f35b3480156105a157600080fd5b506105aa6112f2565b6040516105b791906121b7565b60405180910390f35b6105da60048036038101906105d59190611f6f565b611318565b005b3480156105e857600080fd5b5061060360048036038101906105fe9190611f14565b6115db565b005b60007f7965db0b000000000000000000000000000000000000000000000000000000007bffffffffffffffffffffffffffffffffffffffffffffffffffffffff1916827bffffffffffffffffffffffffffffffffffffffffffffffffffffffff19161480610678575061067782611690565b5b9050919050565b60085481565b60016020528060005260406000206000915090508060000154908060010160009054906101000a900473ffffffffffffffffffffffffffffffffffffffff16908060020154908060030160009054906101000a900460ff16905084565b6000806000838152602001908152602001600020600101549050919050565b61070a826106e2565b610713816116fa565b61071d838361170e565b505050565b61072a6117ee565b73ffffffffffffffffffffffffffffffffffffffff168173ffffffffffffffffffffffffffffffffffffffff1614610797576040517f08c379a000000000000000000000000000000000000000000000000000000000815260040161078e90612255565b60405180910390fd5b6107a182826117f6565b5050565b6107cf7fa49807205ce4d355092ef5a8a18f56e8913cf4a201fbe287825b095693c2177533610bd0565b61080e576040517f08c379a0000000000000000000000000000000000000000000000000000000008152600401610805906122c1565b60405180910390fd5b600160008373ffffffffffffffffffffffffffffffffffffffff1673ffffffffffffffffffffffffffffffffffffffff16815260200190815260200160002060030160009054906101000a900460ff161561089e576040517f08c379a00000000000000000000000000000000000000000000000000000000081526004016108959061232d565b60405180910390fd5b60405180608001604052806002600081546108b89061237c565b91905081905581526020018373ffffffffffffffffffffffffffffffffffffffff16815260200182815260200160011515815250600160008473ffffffffffffffffffffffffffffffffffffffff1673ffffffffffffffffffffffffffffffffffffffff1681526020019081526020016000206000820151816000015560208201518160010160006101000a81548173ffffffffffffffffffffffffffffffffffffffff021916908373ffffffffffffffffffffffffffffffffffffffff1602179055506040820151816002015560608201518160030160006101000a81548160ff0219169083151502179055509050506109d37fe2889e7308860b3fe8df0daa86fccfea4d71e43776719a57be28cf90b6db81e9836118d7565b8173ffffffffffffffffffffffffffffffffffffffff167fab3480fb7047a80d322be65b7e5c25906db00f8e03191940d77d702880ef7d6b6002548385604051610a1f939291906123c4565b60405180910390a25050565b600760009054906101000a900473ffffffffffffffffffffffffffffffffffffffff1681565b60045481565b7fa49807205ce4d355092ef5a8a18f56e8913cf4a201fbe287825b095693c2177581565b610aa57fa49807205ce4d355092ef5a8a18f56e8913cf4a201fbe287825b095693c2177533610bd0565b610ae4576040517f08c379a0000000000000000000000000000000000000000000000000000000008152600401610adb906122c1565b60405180910390fd5b80600560006101000a81548173ffffffffffffffffffffffffffffffffffffffff021916908373ffffffffffffffffffffffffffffffffffffffff16021790555050565b60036020528060005260406000206000915090508060000154908060010160009054906101000a900473ffffffffffffffffffffffffffffffffffffffff16908060020154908060030154908060040160009054906101000a900473ffffffffffffffffffffffffffffffffffffffff16908060040160149054906101000a900460ff16908060040160159054906101000a900460ff16908060050154905088565b60025481565b600080600084815260200190815260200160002060000160008373ffffffffffffffffffffffffffffffffffffffff1673ffffffffffffffffffffffffffffffffffffffff16815260200190815260200160002060009054906101000a900460ff16905092915050565b6000801b81565b600760009054906101000a900473ffffffffffffffffffffffffffffffffffffffff1673ffffffffffffffffffffffffffffffffffffffff163373ffffffffffffffffffffffffffffffffffffffff1614610cd1576040517f08c379a0000000000000000000000000000000000000000000000000000000008152600401610cc890612447565b60405180910390fd5b600060036000838152602001908152602001600020905081816000015414610d2e576040517f08c379a0000000000000000000000000000000000000000000000000000000008152600401610d25906124b3565b60405180910390fd5b8060040160159054906101000a900460ff1615610d80576040517f08c379a0000000000000000000000000000000000000000000000000000000008152600401610d779061251f565b60405180910390fd5b60008160040160009054906101000a900473ffffffffffffffffffffffffffffffffffffffff16826002015484604051602001610dbf9392919061253f565b6040516020818303038152906040529050600560009054906101000a900473ffffffffffffffffffffffffffffffffffffffff1673ffffffffffffffffffffffffffffffffffffffff1663c5e99aca348385600301546040518463ffffffff1660e01b8152600401610e32929190612606565b6000604051808303818588803b158015610e4b57600080fd5b505af1158015610e5f573d6000803e3d6000fd5b505050505060018260040160156101000a81548160ff021916908315150217905550505050565b600660009054906101000a900473ffffffffffffffffffffffffffffffffffffffff1681565b60007fe2889e7308860b3fe8df0daa86fccfea4d71e43776719a57be28cf90b6db81e9610ed8816116fa565b6000600460008154610ee99061237c565b91905081905590506040518061010001604052808281526020013373ffffffffffffffffffffffffffffffffffffffff1681526020018781526020018681526020018573ffffffffffffffffffffffffffffffffffffffff16815260200160001515815260200160001515815260200142815250600360008381526020019081526020016000206000820151816000015560208201518160010160006101000a81548173ffffffffffffffffffffffffffffffffffffffff021916908373ffffffffffffffffffffffffffffffffffffffff160217905550604082015181600201556060820151816003015560808201518160040160006101000a81548173ffffffffffffffffffffffffffffffffffffffff021916908373ffffffffffffffffffffffffffffffffffffffff16021790555060a08201518160040160146101000a81548160ff02191690831515021790555060c08201518160040160156101000a81548160ff02191690831515021790555060e082015181600501559050503373ffffffffffffffffffffffffffffffffffffffff16817f48027d678fbfa59cb7069084469077139c94549d2c0dbe8eb8df8603e705d85d8888886040516110b4939291906123c4565b60405180910390a380925050509392505050565b6110d0611bd3565b6003600083815260200190815260200160002060405180610100016040529081600082015481526020016001820160009054906101000a900473ffffffffffffffffffffffffffffffffffffffff1673ffffffffffffffffffffffffffffffffffffffff1673ffffffffffffffffffffffffffffffffffffffff16815260200160028201548152602001600382015481526020016004820160009054906101000a900473ffffffffffffffffffffffffffffffffffffffff1673ffffffffffffffffffffffffffffffffffffffff1673ffffffffffffffffffffffffffffffffffffffff1681526020016004820160149054906101000a900460ff161515151581526020016004820160159054906101000a900460ff161515151581526020016005820154815250509050919050565b611209826106e2565b611212816116fa565b61121c83836117f6565b505050565b61124b7fa49807205ce4d355092ef5a8a18f56e8913cf4a201fbe287825b095693c2177533610bd0565b61128a576040517f08c379a0000000000000000000000000000000000000000000000000000000008152600401611281906122c1565b60405180910390fd5b80600660006101000a81548173ffffffffffffffffffffffffffffffffffffffff021916908373ffffffffffffffffffffffffffffffffffffffff16021790555050565b7fe2889e7308860b3fe8df0daa86fccfea4d71e43776719a57be28cf90b6db81e981565b600560009054906101000a900473ffffffffffffffffffffffffffffffffffffffff1681565b6113427fa49807205ce4d355092ef5a8a18f56e8913cf4a201fbe287825b095693c2177533610bd0565b611381576040517f08c379a0000000000000000000000000000000000000000000000000000000008152600401611378906122c1565b60405180910390fd5b6000600360008381526020019081526020016000209050818160000154146113de576040517f08c379a00000000000000000000000000000000000000000000000000000000081526004016113d5906124b3565b60405180910390fd5b8060040160159054906101000a900460ff1615611430576040517f08c379a00000000000000000000000000000000000000000000000000000000081526004016114279061251f565b60405180910390fd5b600073ffffffffffffffffffffffffffffffffffffffff16600760009054906101000a900473ffffffffffffffffffffffffffffffffffffffff1673ffffffffffffffffffffffffffffffffffffffff16141580156114955750600854816002015410155b156114d5576040517f08c379a00000000000000000000000000000000000000000000000000000000081526004016114cc906126a8565b60405180910390fd5b60008160040160009054906101000a900473ffffffffffffffffffffffffffffffffffffffff168260020154846040516020016115149392919061253f565b6040516020818303038152906040529050600560009054906101000a900473ffffffffffffffffffffffffffffffffffffffff1673ffffffffffffffffffffffffffffffffffffffff1663c5e99aca348385600301546040518463ffffffff1660e01b8152600401611587929190612606565b6000604051808303818588803b1580156115a057600080fd5b505af11580156115b4573d6000803e3d6000fd5b505050505060018260040160156101000a81548160ff021916908315150217905550505050565b6116057fa49807205ce4d355092ef5a8a18f56e8913cf4a201fbe287825b095693c2177533610bd0565b611644576040517f08c379a000000000000000000000000000000000000000000000000000000000815260040161163b906122c1565b60405180910390fd5b81600760006101000a81548173ffffffffffffffffffffffffffffffffffffffff021916908373ffffffffffffffffffffffffffffffffffffffff160217905550806008819055505050565b60007f01ffc9a7000000000000000000000000000000000000000000000000000000007bffffffffffffffffffffffffffffffffffffffffffffffffffffffff1916827bffffffffffffffffffffffffffffffffffffffffffffffffffffffff1916149050919050565b61170b816117066117ee565b6118e5565b50565b6117188282610bd0565b6117ea57600160008084815260200190815260200160002060000160008373ffffffffffffffffffffffffffffffffffffffff1673ffffffffffffffffffffffffffffffffffffffff16815260200190815260200160002060006101000a81548160ff02191690831515021790555061178f6117ee565b73ffffffffffffffffffffffffffffffffffffffff168173ffffffffffffffffffffffffffffffffffffffff16837f2f8788117e7eff1d82e926ec794901d17c78024a50270940304540a733656f0d60405160405180910390a45b5050565b600033905090565b6118008282610bd0565b156118d357600080600084815260200190815260200160002060000160008373ffffffffffffffffffffffffffffffffffffffff1673ffffffffffffffffffffffffffffffffffffffff16815260200190815260200160002060006101000a81548160ff0219169083151502179055506118786117ee565b73ffffffffffffffffffffffffffffffffffffffff168173ffffffffffffffffffffffffffffffffffffffff16837ff6391f5c32d9c69d2a47ea670b442974b53935d1edc7fd64eb21e047a839171b60405160405180910390a45b5050565b6118e1828261170e565b5050565b6118ef8282610bd0565b611966576118fc8161196a565b61190a8360001c6020611997565b60405160200161191b9291906127a7565b6040516020818303038152906040526040517f08c379a000000000000000000000000000000000000000000000000000000000815260040161195d919061281a565b60405180910390fd5b5050565b60606119908273ffffffffffffffffffffffffffffffffffffffff16601460ff16611997565b9050919050565b6060600060028360026119aa919061283c565b6119b4919061287e565b67ffffffffffffffff8111156119cd576119cc6128b2565b5b6040519080825280601f01601f1916602001820160405280156119ff5781602001600182028036833780820191505090505b5090507f300000000000000000000000000000000000000000000000000000000000000081600081518110611a3757611a366128e1565b5b60200101907effffffffffffffffffffffffffffffffffffffffffffffffffffffffffffff1916908160001a9053507f780000000000000000000000000000000000000000000000000000000000000081600181518110611a9b57611a9a6128e1565b5b60200101907effffffffffffffffffffffffffffffffffffffffffffffffffffffffffffff1916908160001a90535060006001846002611adb919061283c565b611ae5919061287e565b90505b6001811115611b85577f3031323334353637383961626364656600000000000000000000000000000000600f861660108110611b2757611b266128e1565b5b1a60f81b828281518110611b3e57611b3d6128e1565b5b60200101907effffffffffffffffffffffffffffffffffffffffffffffffffffffffffffff1916908160001a905350600485901c945080611b7e90612910565b9050611ae8565b5060008414611bc9576040517f08c379a0000000000000000000000000000000000000000000000000000000008152600401611bc090612985565b60405180910390fd5b8091505092915050565b60405180610100016040528060008152602001600073ffffffffffffffffffffffffffffffffffffffff1681526020016000815260200160008152602001600073ffffffffffffffffffffffffffffffffffffffff168152602001600015158152602001600015158152602001600081525090565b600080fd5b60007fffffffff0000000000000000000000000000000000000000000000000000000082169050919050565b611c8281611c4d565b8114611c8d57600080fd5b50565b600081359050611c9f81611c79565b92915050565b600060208284031215611cbb57611cba611c48565b5b6000611cc984828501611c90565b91505092915050565b60008115159050919050565b611ce781611cd2565b82525050565b6000602082019050611d026000830184611cde565b92915050565b6000819050919050565b611d1b81611d08565b82525050565b6000602082019050611d366000830184611d12565b92915050565b600073ffffffffffffffffffffffffffffffffffffffff82169050919050565b6000611d6782611d3c565b9050919050565b611d7781611d5c565b8114611d8257600080fd5b50565b600081359050611d9481611d6e565b92915050565b600060208284031215611db057611daf611c48565b5b6000611dbe84828501611d85565b91505092915050565b611dd081611d5c565b82525050565b6000608082019050611deb6000830187611d12565b611df86020830186611dc7565b611e056040830185611d12565b611e126060830184611cde565b95945050505050565b6000819050919050565b611e2e81611e1b565b8114611e3957600080fd5b50565b600081359050611e4b81611e25565b92915050565b600060208284031215611e6757611e66611c48565b5b6000611e7584828501611e3c565b91505092915050565b611e8781611e1b565b82525050565b6000602082019050611ea26000830184611e7e565b92915050565b60008060408385031215611ebf57611ebe611c48565b5b6000611ecd85828601611e3c565b9250506020611ede85828601611d85565b9150509250929050565b611ef181611d08565b8114611efc57600080fd5b50565b600081359050611f0e81611ee8565b92915050565b60008060408385031215611f2b57611f2a611c48565b5b6000611f3985828601611d85565b9250506020611f4a85828601611eff565b9150509250929050565b6000602082019050611f696000830184611dc7565b92915050565b600060208284031215611f8557611f84611c48565b5b6000611f9384828501611eff565b91505092915050565b600061010082019050611fb2600083018b611d12565b611fbf602083018a611dc7565b611fcc6040830189611d12565b611fd96060830188611d12565b611fe66080830187611dc7565b611ff360a0830186611cde565b61200060c0830185611cde565b61200d60e0830184611d12565b9998505050505050505050565b60008060006060848603121561203357612032611c48565b5b600061204186828701611eff565b935050602061205286828701611eff565b925050604061206386828701611d85565b9150509250925092565b61207681611d08565b82525050565b61208581611d5c565b82525050565b61209481611cd2565b82525050565b610100820160008201516120b1600085018261206d565b5060208201516120c4602085018261207c565b5060408201516120d7604085018261206d565b5060608201516120ea606085018261206d565b5060808201516120fd608085018261207c565b5060a082015161211060a085018261208b565b5060c082015161212360c085018261208b565b5060e082015161213660e085018261206d565b50505050565b600061010082019050612152600083018461209a565b92915050565b6000819050919050565b600061217d61217861217384611d3c565b612158565b611d3c565b9050919050565b600061218f82612162565b9050919050565b60006121a182612184565b9050919050565b6121b181612196565b82525050565b60006020820190506121cc60008301846121a8565b92915050565b600082825260208201905092915050565b7f416363657373436f6e74726f6c3a2063616e206f6e6c792072656e6f756e636560008201527f20726f6c657320666f722073656c660000000000000000000000000000000000602082015250565b600061223f602f836121d2565b915061224a826121e3565b604082019050919050565b6000602082019050818103600083015261226e81612232565b9050919050565b7f4e6f742061646d696e0000000000000000000000000000000000000000000000600082015250565b60006122ab6009836121d2565b91506122b682612275565b602082019050919050565b600060208201905081810360008301526122da8161229e565b9050919050565b7f416c726561647920726567697374657265640000000000000000000000000000600082015250565b60006123176012836121d2565b9150612322826122e1565b602082019050919050565b600060208201905081810360008301526123468161230a565b9050919050565b7f4e487b7100000000000000000000000000000000000000000000000000000000600052601160045260246000fd5b600061238782611d08565b91507fffffffffffffffffffffffffffffffffffffffffffffffffffffffffffffffff82036123b9576123b861234d565b5b600182019050919050565b60006060820190506123d96000830186611d12565b6123e66020830185611d12565b6123f36040830184611dc7565b949350505050565b7f4f6e6c79206d756c74697369672063616e2063616c6c00000000000000000000600082015250565b60006124316016836121d2565b915061243c826123fb565b602082019050919050565b6000602082019050818103600083015261246081612424565b9050919050565b7f496e76616c696420726571756573740000000000000000000000000000000000600082015250565b600061249d600f836121d2565b91506124a882612467565b602082019050919050565b600060208201905081810360008301526124cc81612490565b9050919050565b7f416c726561647920657865637574656400000000000000000000000000000000600082015250565b60006125096010836121d2565b9150612514826124d3565b602082019050919050565b60006020820190508181036000830152612538816124fc565b9050919050565b60006060820190506125546000830186611dc7565b6125616020830185611d12565b61256e6040830184611d12565b949350505050565b600081519050919050565b600082825260208201905092915050565b60005b838110156125b0578082015181840152602081019050612595565b60008484015250505050565b6000601f19601f8301169050919050565b60006125d882612576565b6125e28185612581565b93506125f2818560208601612592565b6125fb816125bc565b840191505092915050565b6000604082019050818103600083015261262081856125cd565b905061262f6020830184611d12565b9392505050565b7f486967682d76616c75652072657175657374207265717569726573206d756c7460008201527f6973696720657865637574696f6e000000000000000000000000000000000000602082015250565b6000612692602e836121d2565b915061269d82612636565b604082019050919050565b600060208201905081810360008301526126c181612685565b9050919050565b600081905092915050565b7f416363657373436f6e74726f6c3a206163636f756e7420000000000000000000600082015250565b60006127096017836126c8565b9150612714826126d3565b601782019050919050565b600081519050919050565b60006127358261271f565b61273f81856126c8565b935061274f818560208601612592565b80840191505092915050565b7f206973206d697373696e6720726f6c6520000000000000000000000000000000600082015250565b60006127916011836126c8565b915061279c8261275b565b601182019050919050565b60006127b2826126fc565b91506127be828561272a565b91506127c982612784565b91506127d5828461272a565b91508190509392505050565b60006127ec8261271f565b6127f681856121d2565b9350612806818560208601612592565b61280f816125bc565b840191505092915050565b6000602082019050818103600083015261283481846127e1565b905092915050565b600061284782611d08565b915061285283611d08565b925082820261286081611d08565b915082820484148315176128775761287661234d565b5b5092915050565b600061288982611d08565b915061289483611d08565b92508282019050808211156128ac576128ab61234d565b5b92915050565b7f4e487b7100000000000000000000000000000000000000000000000000000000600052604160045260246000fd5b7f4e487b7100000000000000000000000000000000000000000000000000000000600052603260045260246000fd5b600061291b82611d08565b91506000820361292e5761292d61234d565b5b600182039050919050565b7f537472696e67733a20686578206c656e67746820696e73756666696369656e74600082015250565b600061296f6020836121d2565b915061297a82612939565b602082019050919050565b6000602082019050818103600083015261299e81612962565b905091905056fea2646970667358221220892b11211cad0281334b7d58d6f9f567d3af04e73b10c46e254186c6166fefd964736f6c63430008130033",
  "linkReferences": {},
  "deployedLinkReferences": {}
}