{
  "_format": "hh-sol-artifact-1",
  "contractName": "AuditTrail",
  "sourceName": "contracts/AuditTrail.sol",
  "abi": [
    {
      "inputs": [
        {
          "internalType": "address",
          "name": "admin",
          "type": "address"
        }
      ],
      "stateMutability": "nonpayable",
      "type": "constructor"
    },
    {
      "anonymous": false,
      "inputs": [
        {
          "indexed": true,
          "internalType": "uint256",
          "name": "requestId",
          "type": "uint256"
        },
        {
          "indexed": true,
          "internalType": "address",
          "name": "requester",
          "type": "address"
        },
        {
          "indexed": false,
          "internalType": "uint256",
          "name": "amount",
          "type": "uint256"
        },
        {
          "indexed": false,
          "internalType": "uint256",
          "name": "targetChainId",
          "type": "uint256"
        },
        {
          "indexed": false,
          "internalType": "address",
          "name": "targetWallet",
          "type": "address"
        },
        {
          "indexed": false,
          "internalType": "uint256",
          "name": "timestamp",
          "type": "uint256"
        }
      ],
      "name": "PaymentRequested",
      "type": "event"
    },
    {
      "anonymous": false,
      "inputs": [
        {
          "indexed": true,
          "internalType": "uint256",
          "name": "requestId",
          "type": "uint256"
        },
        {
          "indexed": true,
          "internalType": "address",
          "name": "executor",
          "type": "address"
        },
        {
          "indexed": false,
          "internalType": "uint256",
          "name": "amount",
          "type": "uint256"
        },
        {
          "indexed": false,
          "internalType": "uint256",
          "name": "targetChainId",
          "type": "uint256"
        },
        {
          "indexed": false,
          "internalType": "address",
          "name": "targetWallet",
          "type": "address"
        },
        {
          "indexed": false,
          "internalType": "uint256",
          "name": "timestamp",
          "type": "uint256"
        }
      ],
      "name": "PayoutExecuted",
      "type": "event"
    },
    {
      "anonymous": false,
      "inputs": [
        {
          "indexed": true,
          "internalType": "bytes32",
          "name": "role",
          "type": "bytes32"
        },
        {
          "indexed": true,
          "internalType": "bytes32",
          "name": "previousAdminRole",
          "type": "bytes32"
        },
        {
          "indexed": true,
          "internalType": "bytes32",
          "name": "newAdminRole",
          "type": "bytes32"
        }
      ],
      "name": "RoleAdminChanged",
      "type": "event"
    },
    {
      "anonymous": false,
      "inputs": [
        {
          "indexed": true,
          "internalType": "bytes32",
          "name": "role",
          "type": "bytes32"
        },
        {
          "indexed": true,
          "internalType": "address",
          "name": "account",
          "type": "address"
        },
        {
          "indexed": true,
          "internalType": "address",
          "name": "sender",
          "type": "address"
        }
      ],
      "name": "RoleGranted",
      "type": "event"
    },
    {
      "anonymous": false,
      "inputs": [
        {
          "indexed": true,
          "internalType": "bytes32",
          "name": "role",
          "type": "bytes32"
        },
        {
          "indexed": true,
          "internalType": "address",
          "name": "account",
          "type": "address"
        },
        {
          "indexed": true,
          "internalType": "address",
          "name": "sender",
          "type": "address"
        }
      ],
      "name": "RoleRevoked",
      "type": "event"
    },
    {
      "anonymous": false,
      "inputs": [
        {
          "indexed": true,
          "internalType": "uint256",
          "name": "requestId",
          "type": "uint256"
        },
        {
          "indexed": true,
          "internalType": "address",
          "name": "approver",
          "type": "address"
        },
        {
          "indexed": false,
          "internalType": "string",
          "name": "transcript",
          "type": "string"
        },
        {
          "indexed": false,
          "internalType": "uint256",
          "name": "timestamp",
          "type": "uint256"
        }
      ],
      "name": "VoiceApproved",
      "type": "event"
    },
    {
      "inputs": [],
      "name": "ADMIN_ROLE",
      "outputs": [
        {
          "internalType": "bytes32",
          "name": "",
          "type": "bytes32"
        }
      ],
      "stateMutability": "view",
      "type": "function"
    },
    {
      "inputs": [],
      "name": "DEFAULT_ADMIN_ROLE",
      "outputs": [
        {
          "internalType": "bytes32",
          "name": "",
          "type": "bytes32"
        }
      ],
      "stateMutability": "view",
      "type": "function"
    },
    {
      "inputs": [
        {
          "internalType": "bytes32",
          "name": "role",
          "type": "bytes32"
        }
      ],
      "name": "getRoleAdmin",
      "outputs": [
        {
          "internalType": "bytes32",
          "name": "",
          "type": "bytes32"
        }
      ],
      "stateMutability": "view",
      "type": "function"
    },
    {
      "inputs": [
        {
          "internalType": "bytes32",
          "name": "role",
          "type": "bytes32"
        },
        {
          "internalType": "address",
          "name": "account",
          "type": "address"
        }
      ],
      "name": "grantRole",
      "outputs": [],
      "stateMutability": "nonpayable",
      "type": "function"
    },
    {
      "inputs": [
        {
          "internalType": "bytes32",
          "name": "role",
          "type": "bytes32"
        },
        {
          "internalType": "address",
          "name": "account",
          "type": "address"
        }
      ],
      "name": "hasRole",
      "outputs": [
        {
          "internalType": "bool",
          "name": "",
          "type": "bool"
        }
      ],
      "stateMutability": "view",
      "type": "function"
    },
    {
      "inputs": [
        {
          "internalType": "uint256",
          "name": "requestId",
          "type": "uint256"
        },
        {
          "internalType": "address",
          "name": "requester",
          "type": "address"
        },
        {
          "internalType": "uint256",
          "name": "amount",
          "type": "uint256"
        },
        {
          "internalType": "uint256",
          "name": "targetChainId",
          "type": "uint256"
        },
        {
          "internalType": "address",
          "name": "targetWallet",
          "type": "address"
        }
      ],
      "name": "logPaymentRequested",
      "outputs": [],
      "stateMutability": "nonpayable",
      "type": "function"
    },
    {
      "inputs": [
        {
          "internalType": "uint256",
          "name": "requestId",
          "type": "uint256"
        },
        {
          "internalType": "address",
          "name": "executor",
          "type": "address"
        },
        {
          "internalType": "uint256",
          "name": "amount",
          "type": "uint256"
        },
        {
          "internalType": "uint256",
          "name": "targetChainId",
          "type": "uint256"
        },
        {
          "internalType": "address",
          "name": "targetWallet",
          "type": "address"
        }
      ],
      "name": "logPayoutExecuted",
      "outputs": [],
      "stateMutability": "nonpayable",
      "type": "function"
    },
    {
      "inputs": [
        {
          "internalType": "uint256",
          "name": "requestId",
          "type": "uint256"
        },
        {
          "internalType": "address",
          "name": "approver",
          "type": "address"
        },
        {
          "internalType": "string",
          "name": "transcript",
          "type": "string"
        }
      ],
      "name": "logVoiceApproval",
      "outputs": [],
      "stateMutability": "nonpayable",
      "type": "function"
    },
    {
      "inputs": [
        {
          "internalType": "bytes32",
          "name": "role",
          "type": "bytes32"
        },
        {
          "internalType": "address",
          "name": "account",
          "type": "address"
        }
      ],
      "name": "renounceRole",
      "outputs": [],
      "stateMutability": "nonpayable",
      "type": "function"
    },
    {
      "inputs": [
        {
          "internalType": "bytes32",
          "name": "role",
          "type": "bytes32"
        },
        {
          "internalType": "address",
          "name": "account",
          "type": "address"
        }
      ],
      "name": "revokeRole",
      "outputs": [],
      "stateMutability": "nonpayable",
      "type": "function"
    },
    {
      "inputs": [
        {
          "internalType": "bytes4",
          "name": "interfaceId",
          "type": "bytes4"
        }
      ],
      "name": "supportsInterface",
      "outputs": [
        {
          "internalType": "bool",
          "name": "",
          "type": "bool"
        }
      ],
      "stateMutability": "view",
      "type": "function"
    }
  ],
  "bytecode": "0x60806040523480156200001157600080fd5b506040516200157038038062001570833981810160405281019062000037919062000268565b6200004c6000801b826200008560201b60201c565b6200007e7fa49807205ce4d355092ef5a8a18f56e8913cf4a201fbe287825b095693c21775826200008560201b60201c565b506200029a565b6200009782826200009b60201b60201c565b5050565b620000ad82826200018c60201b60201c565b6200018857600160008084815260200190815260200160002060000160008373ffffffffffffffffffffffffffffffffffffffff1673ffffffffffffffffffffffffffffffffffffffff16815260200190815260200160002060006101000a81548160ff0219169083151502179055506200012d620001f660201b60201c565b73ffffffffffffffffffffffffffffffffffffffff168173ffffffffffffffffffffffffffffffffffffffff16837f2f8788117e7eff1d82e926ec794901d17c78024a50270940304540a733656f0d60405160405180910390a45b5050565b600080600084815260200190815260200160002060000160008373ffffffffffffffffffffffffffffffffffffffff1673ffffffffffffffffffffffffffffffffffffffff16815260200190815260200160002060009054906101000a900460ff16905092915050565b600033905090565b600080fd5b600073ffffffffffffffffffffffffffffffffffffffff82169050919050565b6000620002308262000203565b9050919050565b620002428162000223565b81146200024e57600080fd5b50565b600081519050620002628162000237565b92915050565b600060208284031215620002815762000280620001fe565b5b6000620002918482850162000251565b91505092915050565b6112c680620002aa6000396000f3fe608060405234801561001057600080fd5b50600436106100a95760003560e01c806375b238fc1161007157806375b238fc146101625780638b5e46061461018057806391d148541461019c578063a217fddf146101cc578063d547741f146101ea578063ec29e6ee14610206576100a9565b806301ffc9a7146100ae5780631266444c146100de578063248a9ca3146100fa5780632f2ff15d1461012a57806336568abe14610146575b600080fd5b6100c860048036038101906100c39190610abd565b610222565b6040516100d59190610b05565b60405180910390f35b6100f860048036038101906100f39190610bb4565b61029c565b005b610114600480360381019061010f9190610c65565b6102f8565b6040516101219190610ca1565b60405180910390f35b610144600480360381019061013f9190610cbc565b610317565b005b610160600480360381019061015b9190610cbc565b610338565b005b61016a6103bb565b6040516101779190610ca1565b60405180910390f35b61019a60048036038101906101959190610bb4565b6103df565b005b6101b660048036038101906101b19190610cbc565b61043b565b6040516101c39190610b05565b60405180910390f35b6101d46104a5565b6040516101e19190610ca1565b60405180910390f35b61020460048036038101906101ff9190610cbc565b6104ac565b005b610220600480360381019061021b9190610d61565b6104cd565b005b60007f7965db0b000000000000000000000000000000000000000000000000000000007bffffffffffffffffffffffffffffffffffffffffffffffffffffffff1916827bffffffffffffffffffffffffffffffffffffffffffffffffffffffff19161480610295575061029482610526565b5b9050919050565b8373ffffffffffffffffffffffffffffffffffffffff16857f5888b119c6834d87fff7c3fd5e279f4282972c287f6ffc3c96066b0ed8348943858585426040516102e99493929190610df3565b60405180910390a35050505050565b6000806000838152602001908152602001600020600101549050919050565b610320826102f8565b61032981610590565b61033383836105a4565b505050565b610340610684565b73ffffffffffffffffffffffffffffffffffffffff168173ffffffffffffffffffffffffffffffffffffffff16146103ad576040517f08c379a00000000000000000000000000000000000000000000000000000000081526004016103a490610ebb565b60405180910390fd5b6103b7828261068c565b5050565b7fa49807205ce4d355092ef5a8a18f56e8913cf4a201fbe287825b095693c2177581565b8373ffffffffffffffffffffffffffffffffffffffff16857f255f6a38149b0f0f078824a0adb6b0e352b5db4c5afce11de73788d60239ddf78585854260405161042c9493929190610df3565b60405180910390a35050505050565b600080600084815260200190815260200160002060000160008373ffffffffffffffffffffffffffffffffffffffff1673ffffffffffffffffffffffffffffffffffffffff16815260200190815260200160002060009054906101000a900460ff16905092915050565b6000801b81565b6104b5826102f8565b6104be81610590565b6104c8838361068c565b505050565b8273ffffffffffffffffffffffffffffffffffffffff16847f489967c89cd2a98ab1813f113ca22ac203409162de1563d0ca67c592e6c1d99784844260405161051893929190610f28565b60405180910390a350505050565b60007f01ffc9a7000000000000000000000000000000000000000000000000000000007bffffffffffffffffffffffffffffffffffffffffffffffffffffffff1916827bffffffffffffffffffffffffffffffffffffffffffffffffffffffff1916149050919050565b6105a18161059c610684565b61076d565b50565b6105ae828261043b565b61068057600160008084815260200190815260200160002060000160008373ffffffffffffffffffffffffffffffffffffffff1673ffffffffffffffffffffffffffffffffffffffff16815260200190815260200160002060006101000a81548160ff021916908315150217905550610625610684565b73ffffffffffffffffffffffffffffffffffffffff168173ffffffffffffffffffffffffffffffffffffffff16837f2f8788117e7eff1d82e926ec794901d17c78024a50270940304540a733656f0d60405160405180910390a45b5050565b600033905090565b610696828261043b565b1561076957600080600084815260200190815260200160002060000160008373ffffffffffffffffffffffffffffffffffffffff1673ffffffffffffffffffffffffffffffffffffffff16815260200190815260200160002060006101000a81548160ff02191690831515021790555061070e610684565b73ffffffffffffffffffffffffffffffffffffffff168173ffffffffffffffffffffffffffffffffffffffff16837ff6391f5c32d9c69d2a47ea670b442974b53935d1edc7fd64eb21e047a839171b60405160405180910390a45b5050565b610777828261043b565b6107ee57610784816107f2565b6107928360001c602061081f565b6040516020016107a3929190611063565b6040516020818303038152906040526040517f08c379a00000000000000000000000000000000000000000000000000000000081526004016107e591906110d6565b60405180910390fd5b5050565b60606108188273ffffffffffffffffffffffffffffffffffffffff16601460ff1661081f565b9050919050565b6060600060028360026108329190611127565b61083c9190611169565b67ffffffffffffffff8111156108555761085461119d565b5b6040519080825280601f01601f1916602001820160405280156108875781602001600182028036833780820191505090505b5090507f3000000000000000000000000000000000000000000000000000000000000000816000815181106108bf576108be6111cc565b5b60200101907effffffffffffffffffffffffffffffffffffffffffffffffffffffffffffff1916908160001a9053507f780000000000000000000000000000000000000000000000000000000000000081600181518110610923576109226111cc565b5b60200101907effffffffffffffffffffffffffffffffffffffffffffffffffffffffffffff1916908160001a905350600060018460026109639190611127565b61096d9190611169565b90505b6001811115610a0d577f3031323334353637383961626364656600000000000000000000000000000000600f8616601081106109af576109ae6111cc565b5b1a60f81b8282815181106109c6576109c56111cc565b5b60200101907effffffffffffffffffffffffffffffffffffffffffffffffffffffffffffff1916908160001a905350600485901c945080610a06906111fb565b9050610970565b5060008414610a51576040517f08c379a0000000000000000000000000000000000000000000000000000000008152600401610a4890611270565b60405180910390fd5b8091505092915050565b600080fd5b600080fd5b60007fffffffff0000000000000000000000000000000000000000000000000000000082169050919050565b610a9a81610a65565b8114610aa557600080fd5b50565b600081359050610ab781610a91565b92915050565b600060208284031215610ad357610ad2610a5b565b5b6000610ae184828501610aa8565b91505092915050565b60008115159050919050565b610aff81610aea565b82525050565b6000602082019050610b1a6000830184610af6565b92915050565b6000819050919050565b610b3381610b20565b8114610b3e57600080fd5b50565b600081359050610b5081610b2a565b92915050565b600073ffffffffffffffffffffffffffffffffffffffff82169050919050565b6000610b8182610b56565b9050919050565b610b9181610b76565b8114610b9c57600080fd5b50565b600081359050610bae81610b88565b92915050565b600080600080600060a08688031215610bd057610bcf610a5b565b5b6000610bde88828901610b41565b9550506020610bef88828901610b9f565b9450506040610c0088828901610b41565b9350506060610c1188828901610b41565b9250506080610c2288828901610b9f565b9150509295509295909350565b6000819050919050565b610c4281610c2f565b8114610c4d57600080fd5b50565b600081359050610c5f81610c39565b92915050565b600060208284031215610c7b57610c7a610a5b565b5b6000610c8984828501610c50565b91505092915050565b610c9b81610c2f565b82525050565b6000602082019050610cb66000830184610c92565b92915050565b60008060408385031215610cd357610cd2610a5b565b5b6000610ce185828601610c50565b9250506020610cf285828601610b9f565b9150509250929050565b600080fd5b600080fd5b600080fd5b60008083601f840112610d2157610d20610cfc565b5b8235905067ffffffffffffffff811115610d3e57610d3d610d01565b5b602083019150836001820283011115610d5a57610d59610d06565b5b9250929050565b60008060008060608587031215610d7b57610d7a610a5b565b5b6000610d8987828801610b41565b9450506020610d9a87828801610b9f565b935050604085013567ffffffffffffffff811115610dbb57610dba610a60565b5b610dc787828801610d0b565b925092505092959194509250565b610dde81610b20565b82525050565b610ded81610b76565b82525050565b6000608082019050610e086000830187610dd5565b610e156020830186610dd5565b610e226040830185610de4565b610e2f6060830184610dd5565b95945050505050565b600082825260208201905092915050565b7f416363657373436f6e74726f6c3a2063616e206f6e6c792072656e6f756e636560008201527f20726f6c657320666f722073656c660000000000000000000000000000000000602082015250565b6000610ea5602f83610e38565b9150610eb082610e49565b604082019050919050565b60006020820190508181036000830152610ed481610e98565b9050919050565b82818337600083830152505050565b6000601f19601f8301169050919050565b6000610f078385610e38565b9350610f14838584610edb565b610f1d83610eea565b840190509392505050565b60006040820190508181036000830152610f43818587610efb565b9050610f526020830184610dd5565b949350505050565b600081905092915050565b7f416363657373436f6e74726f6c3a206163636f756e7420000000000000000000600082015250565b6000610f9b601783610f5a565b9150610fa682610f65565b601782019050919050565b600081519050919050565b60005b83811015610fda578082015181840152602081019050610fbf565b60008484015250505050565b6000610ff182610fb1565b610ffb8185610f5a565b935061100b818560208601610fbc565b80840191505092915050565b7f206973206d697373696e6720726f6c6520000000000000000000000000000000600082015250565b600061104d601183610f5a565b915061105882611017565b601182019050919050565b600061106e82610f8e565b915061107a8285610fe6565b915061108582611040565b91506110918284610fe6565b91508190509392505050565b60006110a882610fb1565b6110b28185610e38565b93506110c2818560208601610fbc565b6110cb81610eea565b840191505092915050565b600060208201905081810360008301526110f0818461109d565b905092915050565b7f4e487b7100000000000000000000000000000000000000000000000000000000600052601160045260246000fd5b600061113282610b20565b915061113d83610b20565b925082820261114b81610b20565b91508282048414831517611162576111616110f8565b5b5092915050565b600061117482610b20565b915061117f83610b20565b9250828201905080821115611197576111966110f8565b5b92915050565b7f4e487b7100000000000000000000000000000000000000000000000000000000600052604160045260246000fd5b7f4e487b7100000000000000000000000000000000000000000000000000000000600052603260045260246000fd5b600061120682610b20565b915060008203611219576112186110f8565b5b600182039050919050565b7f537472696e67733a20686578206c656e67746820696e73756666696369656e74600082015250565b600061125a602083610e38565b915061126582611224565b602082019050919050565b600060208201905081810360008301526112898161124d565b905091905056fea2646970667358221220b7d270c06556233e4322b5b6f4133d52d2bc245818c6ce410dc08b0f48adbfd864736f6c63430008130033",
  "linkReferences": {},
  "deployedLinkReferences": {}
}